:020000040000FA
:2B000000FFFF62FF2500FFFFFFFFFFFFFFFFFFFFFFFFFFFFFFFFFFFFFFFFFFFFFFFFFFFFFFFFFFFFFFFFFFFFFFFFFF76
:2B002B00601886611886611886611886611886611886010000000018866118866118866118866118866118866180E74F
:2B005600401004411004411004411004411004411004010000000010044110044110044110044110044110044180E71C
:2B008100000000000000000000000000000000000000000000000000000000000000000000000000000000000080E7ED
:2B00AC00000000000000000000000000000000000000000000000000000000000000000000000000000000000080E7C2
:2B00D700000000000000000000000000000000000000000000000000000000000000000000000000000000000080E797
:2B010200000000000000000000000000000000000000000000000000000000000000000000000000000000000080E76B
:2B012D00000000000000000000000000000000000000000000000000000000000000000000000000000000000080E740
:2B015800000000000000000000400004400000000000000000000000000000000000000000000000000000000080A7D1
:2B018300000000000000000000000000000000000000000000000000000000000000000000000000000000000080E7EA
:2B01AE000000000000000000000000000000000000000000000000000000000000000000000000000000000000A0C5C1
:2B01D900020200000000000000000000000000000000000000000000000000000080000000000000000000000000C7B0
:2B020400000000000000000000000000000000000000000000000000000000000000000000000000000000000080E768
:2B022F00000000000000000000000000000000000000000000000000000000000000000000000000000000000080E73D
:2B025A00000000000000000000000000000000000000000000000000000000000000000000000000000000000008EF82
:2B028500000000000000000000000000000000000000000000000000000000000000000000000000000000000080E7E7
:2B02B000020000000000000000000000000000000000000000000000000000000000000000000000000000000008ED2C
:2B02DB00000000000000000000000000000000000000000000000000000000000000000000000000000000000080E791
:2B030600000000000000000000000000800000000000000000000000040200000000000000000000000000000000C97D
:2B033100000000000000000000000000000000000000000000000000000000000000000000000000000000000080E73A
:2B035C00000000000000000000000000000000000000000000000000000000000000000040000000000000000080A313
:2B038700000000000000000000000000200000000000000000000008002000000000000000000000001000005000C9DA
:2B03B200020000000000000000000000000000000000000000000000000000000000000000000000000000000008ED29
:2B03DD00000000000000000000000000000000000000000000000000000000000000000000000000000000000080E78E
:2B040800000000000000000000000000000000000000000000000000000000000000000000000000001000005080E306
:2B043300000000000000000000000000200000000000000000000008002000000000000000000000000000000000CD89
:2B045E00000000000000000000000000000000000000000000000000000000000000000000000000000000000080E70C
:2B048900020000000000000000000000000000000000000000000000000000000000000000000000000000000008ED51
:2B04B400800008800008800008800008800008800008000000000020000220000220000220000220000220000280E7BA
:2B04DF00800008800008800008800008800008800008000000000020000220000220000220000220000220000280E78F
:2B050A00002100000000000000000010022100000000000000000000200402000040080000000000000000000080FC88
:2B053500620100000000000000000016600100000000000000000098800D000000580000000000000000000000888537
:2B056000000000000000000000000020000200000000000000000040400004000000000000000000000000000008AB17
:2B058B00C0210000000000000000003CC003000000000000000000D0000900000070080000000000000000000010966E
:2B05B600000000000000000000000040000400000000000000000080000000000000000000000000000000000088EFDF
:2B05E100800B000000000000000000188001000000000000000000E00018000000E0010000000000000000000088D496
:2B060C00020000000000000000000000004000000000000000000000001000000000000000000000000000000008E881
:2B063700800101000000000000000018810100000000000000000080040E00000060040000000000000000000000EF97
:2B066200000800000000000000000000022000000000000000000040100000000040080000000000000000000000FFAC
:2B068D0040020000000000000000001EE00100000000000000000078002700000058000000000000000000000080D2B8
:2B06B800220000000000000000000000000200000000000000000040840000000000000000000000000000000088A700
:2B06E30040000000000000000000001CC403000000000000000000F000010100007008000000000000000000000088D7
:2B070E00A00100000000000000000010000900000000000000000000820000000000010000000000000000000000D5AE
:2B073900A00100000000000000000050000100000000000000000080802E000000E00000000000000000000000009005
:2B076400800100000000000000000000004000000000000000000060020600000000100000000000000000000000E849
:2B078F00828300000000000000000018810100000000000000000060000E020000E0000000000000000000000088992F
:2B07BA00000400000000000000020000020000000000000000000040200002000000080000000000000000000080EF33
:2B07E50040000000000000001E00001E400A000000000000000000D8800900000078000000000000000000000080FECC
:2B0810002000000000000000000000202000000000000000000000004004040000000000000000000000000000808114
:2B083B0042000000000000001C04003C400000000000000000000090000D00000070080000000000000000000008F0A7
:2B086600A20100000000000050000010A00100000000000000000000000004000040000000000000000000000008ADCA
:2B089100A40100000000000010000090A00100000000000000000080010600000040010000000000000000000090D02E
:2B08BC00820100000000000000040000800100000000000000000000010000000000100000000000000000000008F8F8
:2B08E7008283000000000000380000188183000000000000000000E00008040000E00000000000000000000000888EAB
:2B091200022000000000000040002180000000000000000000000000004400000000080000000000008000000088F86B
:2B093D00E00100000000000024600104C005000000000000000000F0820F00000078000000000000800700000000DA06
:2B096800000000000000000002000202200200000000000000000088000C000000000000000000000000000000008B1D
:2B099300C02100000000000004C00304400000000000000000000010000700000070080000000000000702000080C96C
:2B09BE0002010000000000001A00001A200000000000000000000008002000000040010000000000000400000088D7EB
:2B09E90000050000000000001A80071AA0090000000000000000006802000000004000000000000000140000008099A3
:2B0A1400000000000000000018004018800100000000000000000060002600000000000000000000000000000000F848
:2B0A3F008001010000000000388803388883000000000000000000E0200E000000600400000000000006040000008206
:2B0A6A00002100000000000080002080000800000000000000000000088000000000000000000000008400000000BA52
:2B0A9500620100000000000004E00124400200000000000000000078800700000010020000000000800500000008EBFF
:2B0AC000000000000000000002000202200000000000000000000000000000000008000000000000000000000000EDF0
:2B0AEB00C04100000000000004C00304400000000000000000000070200702000010000000000000000702000080C7DB
:2B0B160000080000000000001A00051AA00100000000000000000040011400000068000000000000001000000000E421
:2B0B410080010000000000001A00031AA001000000000000000000C0000C00000068000000000000000E00000008F4F2
:2B0B6C000200000000000000180040188001000000000000000000000000010000600000000000000000000000008E7C
:2B0B9700821100000000000038880338888300000000000000000060040E000000E0200000000000000604000000918D
:2B0BC200020000000000000000088000001100000000000000000040088400000000020000000000000000000080F728
:2B0BED0042080000000000003EE003A4E003000000000000000000588005000000100000000000000021000000009E3F
:2B0C1800200000000000000000000002000500000000000000000000000000000008000000000000800000000008BA40
:2B0C430040000000000000009CC00704C00300000000000000000070200702000010000000000000000100000080FAF8
:2B0C6E00A0010000000000004000041A000000000000000000000000000000000068000000000000800600000080E707
:2B0C9900A0010000000000000000021A0000010000000000000000E0011E00000068000000000000800600000080D530
:2B0CC400820100000000000018800118800101000000000000000000000001000060000000000000000600000088F46C
:2B0CEF00808300000000000018800138880300000000000000000060040E000000E0200000000000000E02000080D8A1
:2B0D1A00008000000000000010020400008000000000000000000000011000000000000000000000001000000080B146
:2B0D4500600200000000000016400016680300000000000000000010000100000090020000000000000100000000BCEA
:2B0D7000000101000000000000200008800000000000000000000008800000000008000000000000800000000080C658
:2B0D9B0042030000000000001C44007CC007000000000000000000100001000000100000000000000001000000888318
:2B0DC600000000000000000000A00100088000000000000000000068800600000068000000000000800600000000DE1F
:2B0DF100800B00000000000098A00128800000000000000000000068800600000068000000000000800600000000DEB1
:2B0E1C00000000000000000000840110100100000000000000000060000600000060000000000000000600000000EA4F
:2B0E47000004000000000000388083388013000000000000000000E0200E020000E0200000000000000E02000008A2AC
:2B0E7200028000000000000000080000008000000000000000000000000000000000020062040000000402000080C994
:2B0E9D00E2030000000000003640081EE80300000000000000000010011100000090800878000000800D00000080BC43
:2B0EC800020800000000000028200040000400000000000000000008800000000008800E60000000000004000000AF38
:2B0EF300C2010000000000001C40001CC00100000000000000000010000100000010000770000000000900000000A592
:2B0F1E00000001000000000000A00100000800000000000000000068800600000068800600000000001000000008C743
:2B0F4900000000000000000048A00180000000000000000000000068800600000068800600000000000800000080921E
:2B0F740080010000000000001090011880010000000000000000006000060000006000000000000000000000008080D1
:2B0F9F008001000000000000388083188001000000000000000000E0200E020000E0200000000000001600000080D755
:2B0FCA000A0000000000000000000000000000000000000000000000000001000000000000000000000000000080FD74
:2B0FF500000201000000000020100221100201000000000000000080400000000080400804000000000804000080D57B
:2B102000000008800008800000000000000008800008000000000000000020000200000120000220000020000200DCA2
:2B104B00800008800008800008800008800008800008000000000020000220000220000220000220000220000280E717
:2B107600000230000000C000000008C0000000000000000000000000000000000088220110000000000100000000C118
:2B10A1000000000000000000000000000000020000000000000000000000000000000000000001100000004408008342
:2B10CC00000000000000000000000000000000000000000000000000000000000000000000000000000000000080E792
:2B10F700000000000000000000000000000000000000000000000000000000000000000220000000000000000080E745
:2B1122000002200000004000000008C0000002000000000000000000000000000088220110000110000100440800BCA1
:2B114D00000101000000000000000010400000000000000000000050004000000040000100000000000004000080F3DD
:2B117800000200000000000020000220001200000000000000000090000800000080000000000000000800000080D581
:2B11A30000C0000000000000000CC0000EC000000000000000000000300101000000300002000000000003000080F8E8
:2B11CE0000400000000000000004400000C000000000000000000000104001000000000001000000000001000080EBF4
:2B11F9000000000000000000040000000000010000000000000000200000000000000000000000000000000000809591
:2B122400000000000000000000000000002000000000000000000000000004000000000000000000000000000080A556
:2B124F00000000000000000000000000000000000000000000000000000000000000000000000000000000000080E70D
:2B127A00000000000000000000000000000000000000000000000020000000000000000000000000000000000080C5E4
:2B12A500000000000000000000000000000000000000000000000000000000000000000000000000000000000080E7B7
:2B12D000000000000000000000000000000000000000000000000000000000000000000000000000000000000080E78C
:2B12FB00000000000000000000000000000000000000000000000000088002000000000000000000008000000080CF6F
:2B132600000001000000000000000000040000000000000000000000000000000000000000000000000000000080F324
:2B135100001000000000000000010000810000000000000000000000000000000000000000000000000000000000EEF1
:2B137C00008000000000000080080800080000000000000000000000202002000000020000000000000002000080CF99
:2B13A700000000000000000000000000000000000000000000000000000000000000000000000000000000000080E7B4
:2B13D200000004400004000000000000000000000000000000000000000000000000000000000000000000000080A781
:2B13FD00000000000000000000000000000000000000000000000000000000000000000000000000000000000080E75E
:2B1428000000000000000000000000000000000000000000000000000000000000000000000000000000000000C0A336
:2B145300000000000200000000000000000000000200000000000000000000000000000000000000000000000080E703
:2B147E00000000000000000000000000000000000000000000000000000000000000000000000000000000000080E7DC
:2B14A900020000000000000000000000000000000000000000000000000000000000000000000000000000000080E5B1
:2B14D400000000000000000000000000000000000000000000000000000000000000000000000000000000000080E786
:2B14FF00000000000000000000000000000000000000000000000000000000000000000000000000000000000080E75B
:2B152A00000000000000000000000000000000000000000000000000000000000000000000000000000000000080E72F
:2B155500000000000000000000000000000000000000000000000000000000000000000000000000000000000080E704
:2B158000000000000000000000000000000000800000000000000000000020000000000000000000000000000200EFAF
:2B15AB00000000000000000000000000000000000000000000000000000000000000000000000000000000000080E7AE
:2B15D600000020000200000000000000000000000200000000000000000000000800000000000000000000000000C5F9
:2B160100000000000000000000000000000000200000000000000000000000000002000000000000001000005080E3D9
:2B162C00020000000000000000000000000000000000000000000000000000000000000000000000000000008008E524
:2B165700000000000000000000000000000000000000000000000000000000000000000000000000000400000408EF69
:2B168200000000000000000000000000000000000000000000000000000000000000000000000000000000000090F6B7
:2B16AD00000000000000000000000000000000200000000000000000000000000003000000000000001000005008FB8C
:2B16D800000000000000000000000000000000000000000000000000000000000000000000000000000000000008EFF0
:2B170300020000000000000000000000000000000000000000000000000000000000000000000000000000000008EDC4
:2B172E00800008800008800008800008800008800008000000000020000220000220000220000220000220000280E72D
:2B175900800008800008800008800008800008800008000000000020000220000220000220000220000220000280E702
:2B178400000000010010010000000000000000011100000000000000000000000000000000000000000000000082C7CD
:2B17AF0002001E00001600000000000000001E600100000000000000000000000000000000000000000000800E088341
:2B17DA00000000020020000000000000000000020000000000000000000000000000000000000000000000800E80AB07
:2B18050000003C00003C00000000000000003CC02100000000000000000000000000000000000000000000000180D6CC
:2B183000000050000080000000000000000050000000000000000000000000000000000000000000000000800080EF7E
:2B185B00000010000018000000000000000010800B00000000000000000000000000000000000000000000801680AADF
:2B188600020000020000040000000000000000042000000000000000000000000000000000000000000000000008ED16
:2B18B10000001800003800000000000000003880010000000000000000000000000000000000000000000000068081FC
:2B18DC00000000011100010000000000000000010800000000000000000000000000000000000000000000000600902F
:2B19070000001E60011E00000000000000001E400200000000000000000070020000000000000000000000804780837C
:2B193200020020000020000000000000000000220000000000000000000088000000000000000000000000002608A3CD
:2B195D0000003CC0213C00000000000000003C400000000000000000000010000000000000000000000000000F00E18A
:2B198800000090000010000000000000000010A00100000000000000000008000000000000000000000000000600A134
:2B19B300000010800990000000000000000090A001000000000000000000E8020000000000000000000000002000B8ED
:2B19DE00000000024000040000000000000000800100000000000000000060000000000000000000000000000600FCB5
:2B1A09000200188003380000000000000000189083000000000000000000E0200000000000000000000000000608EEB6
:2B1A3400000000001180000000000000000000008000000000000000000040000000000000000000000002000600FD31
:2B1A5F000000A4600124000000000000000044600200000000000000000058200000000000000000800F00804700A916
:2B1A8A00000002000202000000000000000002000101000000000000000000400000000000000000000604002680E651
:2B1AB500020004C00304000000000000000004400300000000000000000090000000000000000000000900000F08D270
:2B1AE00002001A00001A00000000000000001A000000000000000000000000000000000000000000000600000600DCA3
:2B1B0B0004001A80071A00000000000000001A800B00000000000000000080010000000000000000004800002680FFDD
:2B1B3600020018002018000000000000000018000000000000000000000000010000000000000000000600000000997A
:2B1B61000200388801380800000000000000380806000000000000000000E0000000000000000000000000000600A981
:2B1B8C00020040000000000000000000000000000000000000000000000040044400000000000000000000004008AD6F
:2B1BB700000024400AA40000000000000000A4C005000000000000000000F8800500000000000000000000800E00B6C7
:2B1BE200000002200002000000000000000002200200000000000000000040208000000000000000000000800E80E7BB
:2B1C0D000000044000040000000000000000044000000000000000000000F0000F00000000000000000000000780D0CA
:2B1C380002001AA0011A00000000000000001A200000000000000000000000001000000000000000000000800088C494
:2B1C630000001AA0011A00000000000000001AA00900000000000000000000080E00000000000000000000801E88D7AB
:2B1C8E00000018800118000000000000000018800100000000000000000060028000000000000000000000000010836C
:2B1CB900000038888338080000000000000038888300000000000000000060000600000000000000000000000088DC70
:2B1CE400000080001000080000000000000080008000000000000000000040044000000000000000000020200608CE9D
:2B1D0F00020024E0013E000000000000000024600300000000000000000058800700000000000000000098804788DC3B
:2B1D3A000000020000800000000000000000028000000000000000000000000880000000000000000000800026008BC1
:2B1D6500000004C0211C000000000000000004C003010000000000000000F0000F00000000000000000010000F80E804
:2B1D900000001A00010000000000000000001A000200000000000000000000000400000000000000000000400080D05D
:2B1DBB0000001A00058000000000000000001A8002000000000000000000E0011400000000000000000080002608D649
:2B1DE600020018004018000000000000000018000101000000000000000000108000000000000000000020000600A5EB
:2B1E11000200388803180000000000000000388803000000000000000000E00006000000000000000000800406009EF8
:2B1E3C00020000000410010000000000000010011100000000000000000000041000000000000000000000014080B1BC
:2B1E670002001E480016000000000000000016E003000000000000000000780001000000000000000000108007808FBA
:2B1E920000000020000002000000000000000002050000000000000000000088000000000000000000000800000892D2
:2B1EBD0000009C40003C00000000000000003CC001000000000000000000F0000100000000000000000010004780A37A
:2B1EE800000040A00100000000000000000080000800000000000000000040810600000000000000000068002000DD3A
:2B1F1300000000A001780000000000000000180000000000000000000000C0800600000000000000000068000E009A1C
:2B1F3E0002001880010004000000000000000080210000000000000000000010060000000000000000006000068884B0
:2B1F69000000188083380000000000000000189003000000000000000000E0000E020000000000000000E0200008AAAD
:2B1F94000000100180000800000000000000000810000000000000000000000000000000000000000000000006908952
:2B1FBF0000001660023600000000000000003EE00100000000000000000010012100000000000000000090814708C5D3
:2B1FEA00000000020149000000000000000000080000000000000000000008800000000000000000000008002608C4F6
:2B20150002003C40031C00000000000000001CC02100000000000000000010000100000000000000000010000F88D876
:2B204000000000000000010000000000000040000100000000000000000068800600000000000000000068000600BB1C
:2B206B00000098800928000000000000000000000700000000000000000068800600000000000000000068002680B04E
:2B209600000000020010100000000000000018002000000000000000000060000600000000000000000060000600FFFA
:2B20C1000000180004380000000000000000188001000000000000000000E0200E020000000000000000E0200088CFA0
:2B20EC00020000000800000000000000000000080400000000000000000000010402000000000800040000204480A814
:2B21170002001E48004400000000000000003E400200000000000000000010800D00000000800118000098800500E13D
:2B2142000200002800020000000000000000802000000000000000000000080000040000000006600000A0000400E3AD
:2B216D0002003C40000400000000000000001C400000000000000000000010000900000000004770040010004500C779
:2B219800000080A0011A000000000000000000A00100000000000000000068001000000000000660000000402488BFB7
:2B21C300000000A0011A000000000000000080A001000000000000000000680008000000000006600000C0000C80B043
:2B21EE00000018800118000000000000000018800100000000000000000060000000000000000600000000000400BA58
:2B2219000000188083380800000000000000188083000000000000000000E0201600000000000600000080042200B7AB
:2B2244000A0000000000000000000000000000004000000000000000000000000000000000000000000000000080E9BC
:2B226F00000020100221100000000000000020100000000000000000000080400804000000000000000080400884E7B2
:2B229A00800000000000800008800008800000000008000000000020000200000020000220000220000200000100FE7A
:2B22C500800008800008800008800008800008800008000000000020000220000220000220000220000220000280E78B
:2B22F000000082200442000000000000000020000000000000000000000000000100000000000110000080DC08839032
:2B231B00000000000000000000000000000000000000000000000000000000000000000000000000000000000080E730
:2B234600000000000000000000000000000000000000000000000000000000000000000110000000000000100480B314
:2B237100000000000000000000000000000008000000000000000000000000000000000000000220000000080000E728
:2B239C00000082200442000000000000000020000000000000000000000000000100000110000110000080C408829885
:2B23C700000000000000000000000000000000500000000000000000000010000000000000000540000230000580F39C
:2B23F200000010000110000000000000000010000500000000000000000040000400000000000040000000000480B2D0
:2B241D000000000EC0000C00000000000000000C4000000000000000000080380003000000000000000000300002F988
:2B244800000000004000040000000000000000045000000000000000000000000001000000000000000001100081E658
:2B2473000000000000000000000000000000000080000000000000000000000000000000000000000000000000C0AB53
:2B249E00000000040000000000000000000000020000000000000000000000000000000000000000000000000080E1AC
:2B24C900000000000000000000000000000000000000000000000000000000000000000000000000000000000080E781
:2B24F400000000000000000000000000000000000000000000000000000000000000000000000000000000000080E756
:2B251F00000000000000000000000000000000000000000000000000000000000000000000000000000000000090F60B
:2B254A000000000000000000000000000000000000000000000000000000000000000000000000000000000000C0A303
:2B257500000000000000000000000000000000000000000000000000000000000000000000000000000000000080E7D4
:2B25A000000000000008000000000000000000400000000000000000000000011000000000000000000000000000AF08
:2B25CB00000000000000000000000000000000000000000000000000000000000000000000000000000000000080E77E
:2B25F6000000400088C00800000000000000C0008000000000000000000000320002000000000000000002200000B9DB
:2B262100000000000000000100000010000000000000000000000000000000000000000000000000000000000080E716
:2B264C00000000000000000000000000000000000000000000000000000000000000000000000000000000000080E7FC
:2B267700000000000000000000000000000000000000000000000000000000000000000000000000000000000080E7D1
:2B26A200020000000000000000000000000000000000000000000000000000000000000000000000000000000080E5A6
:2B26CD00000000000000000000000000000000000020000000000000000080000080000000000000000000000080C57D
:2B26F800000000000000000000000000000000000000000000000000000000000000000000000000000000000080E750
:2B272300000000000000000000000000000000000000000000000000000000000000000000000000000000000008EF94
:2B274E00000000000000000000000000000000000000000000000000000000000000000000000000000000000080E7F9
:2B277900000000000000000000100000000000000000000000000000000000000000000000000000000000000080F7AE
:2B27A400000000000000000000000000000000000000000000000000000004000000000000000000000000000080A7DF
:2B27CF00000000000000000000000000000000000000000000000000000000000000000000000000000000000080E778
:2B27FA00000000000000000000000000000000000008000000000000000020000020000000000000000000000000EF7D
:2B282500000000000000000220000020000000000000000000000000000800000000010000000000000000000000C479
:2B285000000000000000000000000000000000000000000000000000000000000000000000000000000000000080E7F6
:2B287B00000000000000200000000000000000000002000000000000000000020008000000000000001000005000E9BD
:2B28A600020000000000000000000000000000000000000000000000000000000000000000000000000000000008ED10
:2B28D100000000000000000000000000000000000000000000000000000000000000000000000000000000000080E775
:2B28FC00000000000000000000000000000000000000000000000000000000000000000000000000001000005080E3EE
:2B292700000000000000200000000000000000000002000000000000000000020008000000000000000000000000ED6C
:2B295200000000000000000000000000000000000000000000000000000000000000000000000000000000000080E7F3
:2B297D00020000000000000000000000000000000000000000000000000000000000000000000000000000000008ED38
:2B29A800800008800008800008800008800008800008000000000020000220000220000220000220000220000280E7A1
:2B29D300800008800008800008800008800008800008000000000020000220000220000220000220000220000280E776
:2B29FE00000000000000001100011010010000000010010000000000004440040000000000000000000000000080F76B
:2B2A290002000000000060011EE001160000000000160000000000008005580000000000000000000000000000089C73
:2B2A5400000000000000000000022000000000000000000000000000008000000000000000000000000000000080EF46
:2B2A7F00000000000000C0113CC0031C01000000001C020000000000000F70080000000000000000000000000080B466
:2B2AAA00000000000000000090000540000000000000000000000000000000020000000000000000000000000000E545
:2B2AD5000000000000008007100001380000000000B800000000000000166000000000000000000000000000008099BF
:2B2B0000020000000000000001004000000000000000100000000000000000100000000000000000000000000008F946
:2B2B2B000000000000008003188203180200000000380000000000000086E0000000000000000000000000000080D453
:2B2B5600000000000000001000001010010000000080000000000000004000010040040000000000000000000000B26C
:2B2B8100000000000000E00144E00116000000000024000000000000800710000058000000000000000000000080C3B7
:2B2BAC00020000000000000002002000000000000002000000000000008008000000000000000000000000000088EFD9
:2B2BD700000000000000C01104C0031C010000000004000000000000000F10000070080000000000000000000080857E
:2B2C020000000000000000051A00010000000000001A0000000000000004680000000200000000000000000000008B74
:2B2C2D0000000000000000031A00099800000000001A00000000000000246800006000000000000000000000008092A6
:2B2C580000000000000000001900000104000000001800000000000000006000000000000000000000000000008085B6
:2B2C83000200000000008003388803380000000000380800000000000086E02000E008000000000000000000008890E0
:2B2CAE00000000000000001080000000010000000000010000000000004000020000000000000000000000000000E047
:2B2CD900000000000000E0012440041E00000000001E000000000000800790000090020000000000000000000080859D
:2B2D0400000000000000000002200000000000000000000000000000008008000008000000000000000000000080EF83
:2B2D2F00020000000000C0110440001C01000000001C020000000000000F10000010000000000000000000000008C12F
:2B2D5A0002000000000000051AA00150000000000010000000000000001468000068000000000000000000000008B987
:2B2D850004000000000000011AA00110000000000070000000000000000468000068000000000000000000000090C1BE
:2B2DB000020000000000000018800100040000000000100000000000000061000060000000000000000000000008E997
:2B2DDB00020000000000802138888338000000000038000000000000000EE02000E020000000000000000000000890D1
:2B2E0600020000000000008000080000000000000040000000000000040000000000000000000000000000000008AD1E
:2B2E3100000000000000E0033E400AA400000000003C0000000000780029182000F0010000000000000000000000BFA2
:2B2E5C00000000000000000000200002000000000022000000000000880040000088000000000000000000000000A90E
:2B2E8700000000000000C001BD4000040000000000040000000000F00001D0040010000000000000000000000000B3D2
:2B2EB200020000000000000480A0011A000000000002000000000040800600020008000000000000000000000088A9B1
:2B2EDD00000000000000000000A0011A00000000009A000000000040810660000068020000000000000000000080FF65
:2B2F0800000000000000800118800118000000000018000000000000400600010060000000000000000000000000BFEE
:2B2F33000000000000008001188083380800000000380800000000E0000E820000E0200000000000000000000000B235
:2B2F5E00000000000000000810010880000000000000000000000040042040040000000000000000000000000000F50A
:2B2F89000200000000004000164002040000000000060800000000580001580000100100000000000000000000089710
:2B2FB400000000000000200000220002000000000010000000000000880000080008000000000000000000000080D4B2
:2B2FDF0000000000000040003C4000040000000000340100000000F00001F0000010000000000000000000000000AE33
:2B300A00000000000000A00140A0011A0000000000000000000000008106000000680000000000000000000000009B75
:2B303500020000000000A00138A0011A0000000000B80000000000E08006E0020068000000000000000000000008D694
:2B306000000000000000800100900118000000000000000000000000400600100060000000000000000000000088B627
:2B308B000000000000008083388083380800000000600000000000E0000EE20000E02000000000000000000000909844
:2B30B600000000000000008010011100080000000000000000000000002000040000040000000000000000000008ED28
:2B30E100000000000000E0031660013600000000001608000000001002097800077C000000000000000000000008AB4D
:2B310C00020000000000000000022008000000000008000000000008800000800800000000000000000000000008E567
:2B313700000000000000C0073CC0037C00000000003C1000000000100001700801700800000000000000000000009D40
:2B316200000000000000000400000820000000000000080000000068800640810040010000000000000000000080811D
:2B318D000000000000000002B88001280000000000280000000000688006C08016400000000000000000000000008880
:2B31B800020000000000800100004010000000000010000000000060000600100600000000000000000000000088867F
:2B31E3000000000000008001188203380100000000380100000000E0200EE2000EE20800000000000000000000809039
:2B320E00000000000000000040008080000000000010010000000000010402000000200000000000000000000000FE1F
:2B323900000000000000400A04E0032400000000003E000000000010800D10010098000000000000000000000000E2AF
:2B3264000000000000002000020008020000000000100000000000080000080000400000000000000000000000009221
:2B328F00020000000000400004C0010400000000005C0000000000100049100000D0040000000000000000000008ADBB
:2B32BA00000000000000A0011A00041A00000000004000000000006800006C0000000200000000000000000000009C5E
:2B32E500000000000000A0011A00001A000000000000000000000068000068000060000000000000000000000000B801
:2B331000000000000000800118800118000000000018000000000060001060000000010000000000000000000000FE79
:2B333B000000000000008083388801380800000000380200000000E02006E02000000000000000000000000000889A01
:2B336600020000000000000800088000080000000080000000000040200442040040040000000000000000000080EDC7
:2B339100020000000000400236E0033E0000000000040000000000D8800DF80000F80000000000000000000000809409
:2B33BC00020000000000200008000001000000000002000000000000000040200040000000000000000000000000DD3C
:2B33E70002000000000040001CD0019C0000000000040000000000900449700000F0100000000000000000000000BCE3
:2B341200000000000000A0010000004000000000001A000000000000010000000000010000000000000000000008ABDF
:2B343D00000000000000A0018800080000000000001A000000000080001000020080000000000000000000000000EC1B
:2B346800000000000000800110800118000000000018000000000000000060200060000000000000000000000080D6C1
:2B3493000000000000008083388101180000000000380800000000600126E00000E04000000000000000000000009ED4
:2B34BE00020000000000000000000000000000000000040000000000000000000000100000000000000000000080F15C
:2B34E900000000000000000221100221100000000000000000000080400884400804000000000000000000000080E753
:2B351400800008800008000000000000800008800000000000000000000000000000000220000220000220000200CD3F
:2B353F00800008800008800008800008800008800008000000000020000220000220000220000220000220000280E7FE
:2B356A00000000000000C00B000033B0020000000000000000000010800800002C00000000000000000000000080C280
:2B359500000000000000000000000000000000000000000000000000000000000000000000000110000000440800A30B
:2B35C000000000000000000000000000000000000000000000000000000000000000000110000000000000000080E768
:2B35EB00000000000000000000000000000000000000000000000000000000000000000000000000000000000080E74E
:2B361600000000000000400A000012A0000000000000000000000010800800002800000110000110000000440880DB04
:2B364100000000000000000000000000000000000004000000000000000000000110000000000000000000000080A722
:2B366C00000000000000008110088110000000000010080000000040200440000040000000000000000000000080D6B7
:2B36970000000000000000C0000CC0000C0000000040060000000000300003380003120000000000000000000080BF6B
:2B36C200000000000000004000044000040000000000010000000000100001000000140000000000000000000080F2BD
:2B36ED00000000000000000001000000000000000000000000000000000000000000200000000000000000000080D73A
:2B371800000000000000000000000001000000000000000000000000000000000000000000000000000000000080F70E
:2B374300000000000000000000000000000000000000000000000000000000000000000000000000000000000080E7F4
:2B376E00000000000000000000000000000000000000000000000000000000000000000000000000000000000080E7C9
:2B379900000000000000000000000000000000000000000000000000000000000000000000000000000000000080E79E
:2B37C400000000000000000000000000000000000000000000000000000000000000000000000000000000000080E773
:2B37EF00000000000000000000000000000000000000080000000000000000000004000000000000000000000080AF74
:2B381A000000000000000000000000040000000000000400000000000110001100000000000000000000000000A09029
:2B384500000000000000000008000008000000000008000000000020000220000020000000000000000000000000EFEF
:2B387000000000000000000040000C800000000000000000000000000020000A0000000000000000000000000080EFC8
:2B389B00000000000000000000000000000000000000000000000000000000000000000000000000000000000080E79B
:2B38C600000000000000000000000000000000000000000000000000000000000000000000000000000000000080E770
:2B38F100000000000000000000000000000000000000000000000000000000000000000000000000000000000080E745
:2B391C00000000000000000000000000000000000000000000000000000000000000000000000000000000000080E719
:2B394700401004411004411004411004411004411004010000000010044110044110044110044110044110044180E7F2
:2B397200601886611886611886611886611886611886010000000018866118866118866118866118866118866180E7CF
:02399D00FFFF2A
:00000001FF
