:020000040000FA
:2B000000FFFF62FF2500FFFFFFFFFFFFFFFFFFFFFFFFFFFFFFFFFFFFFFFFFFFFFFFFFFFFFFFFFFFFFFFFFFFFFFFFFF76
:2B002B00601886611886611886611886611886611886010000000018866118866118866118866118866118866180E74F
:2B005600401004411004411004411004411004411004010000000010044110044110044110044110044110044180E71C
:2B008100000000000000000000000000000000000000000000000000000000000000000000000000000000000080E7ED
:2B00AC00000000000000000000000000000000000000000000000000000000000000000000000000000000000080E7C2
:2B00D700000000000000000000000000000000000000000000000000000000000000000000000000000000000080E797
:2B010200000000000000000000000000000000000000000000000000000000000000000000000000000000000080E76B
:2B012D00000000000000000000000000000000000000000000000000000000000000000000000000000000000080E740
:2B015800020000000000000000000000000000000000000000000000000000000000000000000000000000000080E515
:2B018300000000000000000000000000000000020000000000000000000000000000000000000000000000000080E5EA
:2B01AE00000000000000000000000000000000000000000000000000000000000000000000000000000000010080E6BF
:2B01D9000000000000000000000000000000000000000000000000000000000000000000000000000000000000A0C596
:2B020400000000000000000000000000000004000000000000000000000000000000000000000000000010000080B685
:2B022F00000000020000000000000000000000000000000000000000000000008000000000000000000000000008E535
:2B025A00000000000000000000000000000000000000000000000000000000000000000000000000000000000080E712
:2B028500000000000000000000000000000010000000000000000000000000000000000000000000000000000080F6C8
:2B02B0000200000000000000000000000000000000000000000000000000000000000000000000000000000000A0C7BA
:2B02DB00000000000000000000000000000000000000000000000000000000000000000000000000000000000080E791
:2B030600000000000000000000000000000000000000000000000000000000000000000000000000000000000080E765
:2B033100000220000000000000000220000020000000000000000000000000000000000000000000000000000080C5F8
:2B035C00000000000000000000000000000008000000000000000000000000000000000000000000000000000000EF7F
:2B038700000080081000001000000200000002000000000000000000000000002000000000000000000008002080E5F2
:2B03B200020000002000000000000000000000000000000000000000000000000000000000000000000000000008EF07
:2B03DD00000000000000000000000000000000000000000000000000000000000000000000000000000000000080E78E
:2B040800000000000000001000000000000000000000000000000000000000000000000000000000000000000080E653
:2B0433000000800A300000000000030000000200000000000000000000000000200000000000000000000800A080FD9A
:2B045E00000000000000000000000020000008000000000000000080000000200000000000000000000000000080ED3E
:2B048900028200080000000000000020000000000000000000000080000080000082200000000000000000000088ED85
:2B04B400000000800008800008800000800000800008000000000000000200000000000220000220000220000280E7B4
:2B04DF00800008800008800008800008800008800008000000000020000220000220000220000220000220000280E78F
:2B050A00000010100000000000000000000010000000000000000000000000000000000000000000000000000080F71F
:2B053500020036000000000000000000000016000000000000000000000000000000000000000000000000000008CF76
:2B056000000018000000000000000000000012000000000000000000000000000000000000000000000000000088C7F7
:2B058B0000005C000000000000000000000014000000000000000000000000000000000000000000000000000010BA0B
:2B05B600000010000000000000000000000012000000000000000000000000000000000000000000000000000008CF21
:2B05E100000078000000000000000000000012000000000000000000000000000000000000000000000000000088A13C
:2B060C00020010000000000000000000000010000000000000000000000000000000000000000000000000000008EDAC
:2B063700000038100000000000000000000010020000000000000000000000000000000000000000000000000000DF5F
:2B066200000000000010000000000000000010000000000000000000000000000404000000000000000000000080E3E2
:2B068D00000000000016000000000000000016000000000000000000000000800D00000000000000000000000080BA4F
:2B06B800020000000010000000000000000012000000000000000000000000001600000000000000000000000008AA2B
:2B06E30000000000001400000000000000001400000000000000000000000000070000000000000000000000008090AD
:2B070E000000000000100000000000000000120000000000000000000000000004000000000000000000000000808397
:2B073900000000000010000000000000000012000000000000000000000000001E00000000000000000000000000A0B5
:2B076400000000000050000000000000000010040000000000000000000000000400000000000000000000000080E39F
:2B078F00020000000010000000000000000010000000000000000000000000000E04000000000000000000000088CBB8
:2B07BA00800001000000000000000000100000000000000000000040000040000040000000000000000000010000AA18
:2B07E500E0020000000000000000003E000046000000000000000058000058000058000000000000000098000000964D
:2B081000800500000000000000000000000008000000000000000048000048000048000000000000000008000080F6DA
:2B083B00C2030000000000000000007C000004080000000000000050000050000050000000000000000050200008C11C
:2B0866008204000000000000000000000000000000000000000000480000480000480000000000000000680800888B86
:2B0891008401000000000000000000800000281000000000000000480000480000480000000000000000E8000090F3BC
:2B08BC008200000000000000000000180000280000000000000000401000401000401000000000000000E0000008E493
:2B08E7008203010000000000000000180000280000000000000000C00000C00000C00000000000000000E0000088D7A1
:2B091200020110000000000000000010000080000000000000000040000040000440000000000000000000000088FCCF
:2B093D00600116000000000000000016000006000000000000000058000058800558000000000000000098010080EE68
:2B096800200112000000000000000012000002000000000000000048000048800448000000000000000008000000FEBB
:2B099300400114000000000000000014000014010000000000000050000050000550000000000000000050040080B73B
:2B09BE0022011200000000000000001200001A0100000000000000480000488004480000000000000000E80000888A56
:2B09E90022011200000000000000001200003A000000000000000048000048800448000000000000000068000080A17D
:2B0A14000401100000000000000000100000380000000000000000400000400004410000000000000000E0000080BF76
:2B0A3F0002011510000000000000001402003C000000000000000040040040040D400400000000000000E0000000FE5B
:2B0A6A00020110100010000000000010000040000000000000000040000040000440000000000000000000000080B1E9
:2B0A95006201360000160000000000160000260000000000000000580000588005580000000000000000000000088D29
:2B0AC000200118000010000000000012000022000000000000000048000048800448000000000000000000000000ED45
:2B0AEB0040019C000014000000000014000014000000000000000050000050000550000000000000000000000080BE94
:2B0B160020015000001000000000001200001A0800000000000000480000488004480000000000000000000000009211
:2B0B410020013800001000000000001200001A000000000000000048000048800448000000000000000000000008FC94
:2B0B6C00020110000010000000000010000038000000000000000040100040100440000000000000000000000000DE31
:2B0B970002213810005000000000001410003C0000000000000000D00000D0004550040000000000000000000080B2AD
:2B0BC200820011000010000000000000100000100000000000000040000040000444000000000000000000000000BDC0
:2B0BED00E2021600001600000000003E00003E000000000000000058000058800D58000000000000000000000080AF8D
:2B0C1800800112000010000000000040000080000000000000000048000048000648000000000000000000000088B830
:2B0C4300C0071400001400000000003C00003C000000000000000050000050002750000000000000000000000000F810
:2B0C6E00800012000010000000000040000000000000000000000048000048001448000000000000000000000080828B
:2B0C9900800912000010000000000000000020080000000000000048000048000E48000000000000000000000080DE19
:2B0CC400820010000050000000000018000018000000000000000040000040000440100000000000000000000088B1E6
:2B0CEF00800315020030000000000018000018000000000000000050040050040ED4000000000000000000000000DF77
:2B0D1A00000110000010000000000110000000000000000000000000400000400420400000000000000000000080D048
:2B0D45006001160000160000006001160000660000000000000000F80000F88005B8000000000000000098200000CF65
:2B0D7000200112000010000000200112000008100000000000000000020000820460000000000000000000200080E45E
:2B0D9B004201140000140000004001140000040000000000000000700000700005700100000000000000B0000088ECEF
:2B0DC600200112000010000000200112000000000000000000000000010000810420020000000000000020000000B80C
:2B0DF100200112000010000000200112000028100000000000000000000000800460000000000000000080400000A6DF
:2B0E1C000001100000100000000001100000280000000000000000600000600004210000000000000000A000008088C4
:2B0E4700402110100070000000000111100028000000000000000060000060000CE04000000000000000A0000008A011
:2B0E7200020110000010000000000110000000100000000000000000400000400420400000000000000000040080C6E3
:2B0E9D0062011600001600000060011600003E0000000000000000F80000F88005B8000000000000000098000080B0F1
:2B0EC800220112000010000000200112000000000000000000000000000000800460010000000000000020400000BD85
:2B0EF3004201140000140000004001140000BC000000000000000070020070020570000000000000000010000080FC73
:2B0F1E002001120000100000002001120000000200000000000000000000008004200000000000000000000000889272
:2B0F49002001120000100000002001120000200000000000000000000100008104600200000000000000A04000809E01
:2B0F74000001100000100800000001100000180000000000000000600000600004200000000000000000A0000080A359
:2B0F9F004001110200300000000021100200180000000000000000600000600044E04000000000000000A0000000DBB9
:2B0FCA000A1000010000000000008000000000000000000000000000000000004000040000000000000020000080C7B6
:2B0FF5000002000000000000000002200100001000000000000000800400004000800000000000000000000000809048
:2B102000000000800008800008000000800000800008000000000000000200000000000220000220000200000200CD76
:2B104B00800008800008800008800008800008800008000000000020000220000220000220000220000220000280E717
:2B10760000080008000000000020028000000008000000000000000800A088002080000C00000000000000000000A910
:2B10A100000000200000000004400040001000001404000000000000000000000000000000000100000100000080874F
:2B10CC00000000000000000000000000000000000000000000000000000000000000000000000000000000000080E792
:2B10F700000000000000000000000000000000000000000000000000000000000000000000000000000000000080E767
:2B1122000008002800000000046002C0001000081404000000000008002088002080000800000100000100000000853D
:2B114D00000001100000000000000001100000000000000000000040000040000440000000000000000000000080E72A
:2B117800000010000000000000000000000000010000000000000000000000000400000000000000000000000080B304
:2B11A30000C0000800000000000000000000001800000000000000000000004000023000000000000000002000808BA4
:2B11CE00008000080000000000000000080000080000000000000000200000200002200000000000000000000080E795
:2B11F900100000000000000000000000000004040000000000000000000000000000000000000000000040100080E7FC
:2B1224000000000000000400000000000000400000000000000000000000000000000000000000000000201000809516
:2B124F00000000000000000000000000000000000000000000000000000000000000000000000000000000000080E70D
:2B127A0080000000000000000000400400000000000000000000001000000010002000000000000000000000000088BD
:2B12A500000000000000000000000000000000000000000000000000000000000000000000000000000000000080E7B7
:2B12D000000000000000000000000000000000000000000000000000000000000000000000000000000000000080E78C
:2B12FB00000000000000000000000000000000000000000000000000000000000000000000000000000010080080FE32
:2B132600000000000000000000000000000000120000000000000000000000000000000000000000000000400080B515
:2B135100100000000000000000000008000000000000000000000020000000000000000000000000000000000000DD5C
:2B137C00000000000000000000000000000000000000000000000000020000022000020000000000000000000080E7B9
:2B13A700000000000000000000000000000000000000000000000000000000000000000000000000000000000090F695
:2B13D2000000000000000000000000000000000000000000000000000000000000000000000000000000000000C0A38D
:2B13FD00000000000000000000000000000000000000000000000000000000000000000000000000000000000080E75E
:2B142800000000000000000000000000000000000000000000000000000000000000000000000000000000000080E732
:2B145300080000000000000000000000000000000000000000000000000000000000000000000000000000000180FEE7
:2B147E00000000000000000000000000000000400000000000000000000000000000000000000000000000000080A7DC
:2B14A900000000000200000000000000000000000000000000000000000080000000000000000000000000000000C5D1
:2B14D400000000000000000000000000000000000000000000000000000000000000000000000000000000000080E786
:2B14FF00000000000000000000000000000000000000000000000000000000000000000000000000000000000080E75B
:2B152A000800000000000000000000000000000000000000000000000000000000000000000000000000000000D0BA04
:2B155500000000000000000000000000000000000000000000000000000000000000000000000000000000000080E704
:2B158000000000000000000000000000000000000000000000000000000000000000000000000000000000000080E7D9
:2B15AB00000000000000000000000000000000000000000000000000000000000000000000000000000000000080E7AE
:2B15D600000000000000000000000000000000000000000000000000000000000000000000000000000000000080E783
:2B1601000000000010000010000000000000000000C00000000000000000000000000000000000000000000000028359
:2B162C00020000000000000000000000000000000000000000000000000000000000000000000000000000000008ED9C
:2B165700000000001000000000000000000000000000000000000000000000000000000000000000000000000008EE62
:2B168200000000000000001000000000000000000000000000000000000000000000000000000000000000000090F7A6
:2B16AD000000000000000000000000000000000000D002000000000000000000000000000000000000000000008A981E
:2B16D800000020000000000000000000008000000000000000000000000002000080000000000000000000000088E558
:2B170300028220002000000000000000000200000000000000000000000800080882000000000000000000000088EDE6
:2B172E00000000000008800008800008000008800008000000000020000000000000000220000220000220000280E7F9
:2B175900800008800008800008800008800008800008000000000020000220000220000220000220000220000280E702
:2B178400000000000000000000000000000000000000000000000000000000000000000000000000000000001080E6C4
:2B17AF00020000000000000000000000000000000000000000000000000000000000000000000000000000800908F488
:2B17DA00020000000000000000000000000000000000000000000000000000000000000000000000000000800002CD93
:2B180500040000000000000000000000000000000000000000000000000000000000000000000000000000000580B679
:2B1830000200000000000000000000000000000000000000000000000000000000000000000000000000008006008B7A
:2B185B00020000000000000000000000000000000000000000000000000000000000000000000000000000804E808F83
:2B188600020000000000000000000000000000000000000000000000000000000000000000000000000000000E888B14
:2B18B1000000000000000000000000000000000000000000000000000000000000000000000000000000000006808105
:2B18DC00000000000000000000000000000000000000000000000000000000000000000000000000000000000080E77A
:2B190700000000000000000000000000000000000000000000000000000000000000000000000000000000000080E74E
:2B193200020000000000000000000000000000000000000000000000000000000000000000000000000000000008ED93
:2B195D00000000000000000000000000000000000000000000000000000000000000000000000000000000000008EF68
:2B198800000000000000000000000000000000000000000000000000000000000000000000000000000000000090F6AE
:2B19B300000000000000000000000000000000000000000000000000000000000000000000000000000000000008EF12
:2B19DE00000000000000000000000000000000000000000000000000000000000000000000000000000000000008EFE7
:2B1A0900020000000000000000000000000000000000000000000000000000000000000000000000000000000008EDBB
:2B1A3400000110000100000000000000000100000000000000000000000440000440000000000000000000000080E785
:2B1A5F00600116600100000000000000600100600600000000000000800558800558000000000000000000000080E1A2
:2B1A8A00200112200100000000000000200100200000000000000000800448800448000000000000000000000080C7BD
:2B1AB5004001144001000000000000004001004083000000000000000005500005500000000000000000000000089426
:2B1AE000220112200100000000000000200100A00100000000000000800448800448000000000000000000000000DC4F
:2B1B0B00220112200100000000000000200100A00101000000000000800448800448000000000000000000000000CC32
:2B1B36000211100441000000000000000041008003000000000000000004440004400000000000000000000000009B31
:2B1B6100020330400300000000000000000300800300000000000000000C500444400400000000000000000000808B68
:2B1B8C00000110000100000000000000000100000400000000000000000440000440000000000000000000000008ABDC
:2B1BB700600116600100000000000000600100600200000000000000800558800558000000000000000000000080A589
:2B1BE200200112200100000000000000200100202000000000000000800448800448000000000000000000000080C546
:2B1C0D0040011440010000000000000040010040030000000000000000055000055000000000000000000000008094D4
:2B1C3800220112200100000000000000200100A00300000000000000800448800448000000000000000000000088F651
:2B1C6300200112200100000000000000200100A00100000000000000800448800448000000000000000000000088D64A
:2B1C8E000041100111000000000000000011008003000000000000000004404004444000000000000000000000108890
:2B1CB9000003304003000000000000000003008003000000000000000044D0000CD0000000000000000000000008907C
:2B1CE400000110000100000000000000000100000000000000000000000440000440000000000000000000000008EF43
:2B1D0F00620116600100000000000000600100000000000000000000800558800558000000000000000000801908F51E
:2B1D3A00200112200100000000000000200100000000000000000000800448800448000000000000000000800000EF02
:2B1D6500400114400100000000000000400100000000000000000000000550000550000000000000000000000584F257
:2B1D9000200112200100000000000000200100000000000000000000800448800448000000000000000000800602A9EA
:2B1DBB00200112200100000000000000200100000000000000000000800448800448000000000000000000800E0881D9
:2B1DE600021110041100000000000000004100000000000000000000000444000444000000000000000000000E008338
:2B1E1100420334000300000000000000400300000000000000000000000D40040D50040000000000000000000680D2DD
:2B1E3C00020100000100000000000000000000000000000000000000000440000440000000000000000000000080E58A
:2B1E670062011E640100000000000000E04100000000000000000000800558800558000000000000000000000080E52A
:2B1E9200200180200100000000000000000800000000000000000000800448800448000000000000000000000008EFCC
:2B1EBD0040011C400100000000000000C00100000000000000000000000550000550000000000000000000000080E78A
:2B1EE800200140200100000000000000000400000000000000000000800448800448000000000000000000000080E74A
:2B1F1300200100200100000000000000000000000000000000000000800448800448000000000000000000000080E762
:2B1F3E00024118004100000000000000800100000000000000000000000440400440400000000000000000000008ED5E
:2B1F69004003180003000000000000008001000000000000000000000045C00045C0000000000000000000000080A73D
:2B1F94008000100001000000000000000001000020000000000000000000400002000000000000000000000000009A94
:2B1FBF00E04016604100000000000000600100600000000000000000800759900379100000000000000000800904A135
:2B1FEA00800112800900000000000000200100800001000000000000000060000600020000000000000000008280D7CD
:2B201500C20514C00100000000000000400100400000000000000000002770021770000000000000000000000988F9D9
:2B2040008000120001000000000000002001000040000000000000000000400022000100000000000000000000018F8E
:2B206B008009128005000000000000002001008000000000000000000010600106000000000000000000000002808907
:2B209600800010010100000000000000001100800200000000000000000640000260000000000000000000000A0090B8
:2B20C1008003358003010000000000004003008002000000000000000006E0400E64000000000000000000000288E7EA
:2B20EC0082000000010000000000000000000000800000000000000000004000020000000000000000000000000092F2
:2B211700E2401E644100000000000000E04100600200000000000000800759900379100000000000000000808180C9EF
:2B214200820500800100000000000000000000800000000000000000002060021600000000000000000000000204CA82
:2B216D00C2019CC00900000000000000C00900400201000000000000000770000770010000000000000000000100879C
:2B219800800840000500000000000000000400004000000000000000001040010200000000000000000000000009C0EF
:2B21C300800120800100000000000000000200800000000000000000000060002600020000000000000000000200CDF6
:2B21EE00800018000100000000000000800100800200000000000000000640000260000000000000000000000A0090E8
:2B2219008203198003010000000000008001008002000000000000000006E0400E64000000000000000000000200EDEE
:2B2244000A00010010000000000000000000008000000000000000000000000400040000000000000000000002009238
:2B226F00000020010000000000000000000001000000000000000000000004000080040000000000000000000000900A
:2B229A00000000000008800008800008000008000008000000000020000000000000000220000220000220000000CD9E
:2B22C500800008800008800008800008800008800008000000000020000220000220000220000220000220000280E78B
:2B22F0002002820000B002000000000020080000000000000000000080080880A880000C00000000000000000082B2CD
:2B231B00000000000000000004400040001000001404000000000000000000000000000000000100000100000080A7C2
:2B234600000000000000000000000000000000000000000000000000000000000000000000000000000000000080E705
:2B237100000000000000000000000000000000000000000000000000000000000000000000000000000000000080E7DA
:2B239C002002820000A0000004400040201800001404000000000000800808802880000800000100000100000082AD0D
:2B23C700000000000000000000000000000000000000000000000000000440000440000000000000000000000080E7FC
:2B23F200800008800100000000000000800000000000000000000000000042200002200000000000000000000080B281
:2B241D0000D000019000000000000000001001000000000000000000004004244003040000000000000000000080A350
:2B244800000000000000000000000000000000001000000000000000000000000000000000000000000000004080E2B7
:2B24730000000000000000000000000000000000C0000000000000000000000000000000000000000000000000C28F2D
:2B249E00000000000000000000000000000000004600000000000000000000000000000000000000000000008085DDEB
:2B24C900000000000000000000000000000000000000000000000000000000000000000000000000000000000080E781
:2B24F400000005000000000000000000004000000000000000000000000001000014000000000000000000000080F2F1
:2B251F00000000000000000000000000000000000000000000000000000000000000000000000000000000000080E72A
:2B254A000000000000000000000000000000000000000000000000000000000000000000000000000000000000C0A303
:2B257500000000000000000000000000000000400001000000000000000000000000000000000000000000000A04D517
:2B25A000000000000000000000000000000000000001000000000000000000000000000000000000000000001080F689
:2B25CB00000008000000000000000000000000000000000000000000000000000020000000000000000000000000CDF0
:2B25F600000880000800000000000000000800000000000000000000000000000000000000000000000000000080E7BB
:2B2621000000000000000000000000000000000000000000000000000000000000000000000000000000000000A0C529
:2B264C00000000000000000000000000000000000000000000000000000000000000000000000000000000000080E7FC
:2B267700000000000000000000000000000000000000000000000000000000000000000000000000000000000080E7D1
:2B26A200000000000000000000000000000000000000000000000000000000000000000000000000000000000080E7A6
:2B26CD00000000000000000000000000000000000000000000000000000000000000000000000000000000000080E77B
:2B26F800000000000000000000000000000000000000000000000000000000000000000000000000000000000080E750
:2B272300000000000000000000000000000000000000000000000000000000000000000000000000000000000080E724
:2B274E00000000000000000000000000000000000000000000000000000000000000000000000000000000000008EF69
:2B277900000000000000000000000000000000000000000000000000000000000000000000000000000000000080E7CE
:2B27A400000000000000000000000000000000000000000000000000000000000000000000000000000000000008EF13
:2B27CF00000000000000000000000000000000000000000000000000000000000000000000000000000000000080E778
:2B27FA00000000000000000000000000000000000000000000000000000000000000000000000000000000000080E74D
:2B282500000000000000000000000000000000000000000000000000000000000000000000000000000000000080E721
:2B285000000000000000000000000000000000000000000000000000000000000000000800000000000000000000E76E
:2B287B00000000000000000000000000000000000000000000000000000000000000000008000000002000000000ED1D
:2B28A600020000000000002000000000000000000000000000000000000000000000000000000000000000000008EFEE
:2B28D100000000000000000000000000000000000000000000000000000000000000000000000000000000000080E775
:2B28FC00000000000000000000000000000000000000000000000000000000000000000000000000000000000080E74A
:2B29270000000000000000000000000000000000000000000000000000000000000000000800000000A000000000E5F8
:2B295200000000000000000000000000000000000000000000000000000000000000000000000000000000000080E7F3
:2B297D00020000000000000000000000000000000000000000000000000000000000000000000000000000000008ED38
:2B29A800800008800008800008800008800008800008000000000020000220000220000220000220000220000280E7A1
:2B29D300800008800008800008800008800008800008000000000020000220000220000220000220000220000280E776
:2B29FE00000010000010000000000000000000000000000000000000000000000000000000000400000400000080E71F
:2B2A2900020016000016000000000000000000000000000000000000000000000000000000800500800500000008ED55
:2B2A5400000010000010000000000000000000000000000000000000000000000000000000000400000400000008EF38
:2B2A7F00000014000014000000000000000000000000000000000000000000000000000000000500000500000090F674
:2B2AAA00000010000010000000000000000000000000000000000000000000000000000000000400000400000008EFE2
:2B2AD500000010000010000000000000000000000000000000000000000000000000000000000400000400000008EFB7
:2B2B0000020010000010000000000000000000000000000000000000000000000000000000000400000C00000088ED03
:2B2B2B000000B00000B0000000000000000000000000000000000000000000000000000000000402000C00000000C746
:2B2B56000000100000100002000000000000000000000000000000000004000000000000000004000004000000808125
:2B2B8100000016000016600000000000000000000000000000000000800500000000000000800500800500000000DA34
:2B2BAC00020010000010008000000000000000000000000000000000000400000000000000000400000400000008A1A7
:2B2BD700000014000014400000000000000000000000000000000000000500000000000000000500000500000080F2EA
:2B2C0200000010000010000000000000000000000000000000000000000400000000000000000400000400000080A358
:2B2C2D0000001000001000820000000000000000000000000000000000040000000000000000040000040000008089C5
:2B2C5800000090000090000000000000000000000000000000000000000400000000000000002400002400000080A3C2
:2B2C8300020010000010800201000000000000000000000000000000000402000000000000000C00000400000008B3B0
:2B2CAE00000010000010000000000000000000000000000000000000000400000000000000000480000400000000A3AC
:2B2CD900000016000016000000000000000000000000000000000000800500000000000000800598800500000000A3DA
:2B2D0400000010000010000000000000000000000000000000000000000400000000000000000400000400000080A355
:2B2D2F00020014000014000000000000000000000000000000000000000500000000000000000510200500000008897F
:2B2D5A00000010000010000000000000000000000000000000000000000400000000000000000400040400000008AF67
:2B2D8500000010000010000000000000000000000000000000000000000400000000000000000400000400000090B2B5
:2B2DB000000010000010000000000000000000000000000000000000000400000000000000000400000400000008AB19
:2B2DDB00000090000090000000000000000000000000000000000000002400000000000000002460002400000008CF0A
:2B2E06000200100000100000000000000000000000000000000000000004000000000000E0000400000400000088CF3C
:2B2E3100000016000016000000000000000000000000000000000000800500000000000098800500800500000000A380
:2B2E5C00000010000010000000000000000000000000000000000000000400000000000000000400000400000080A3FC
:2B2E870000001400001400000000000000000000000000000000000000050000000000001020050000050000008083B6
:2B2EB200020010000010000000000000000000000000000000000000000400000000000000040400000400000008AD0E
:2B2EDD00000010000010000000000000000000000000000000000000000400000000000000000400000400000080A37B
:2B2F0800000050000050000000000000000000000000000000000000001400000000000000001400001400000080A2A0
:2B2F3300000010000010000000000000000000000000000000000000000400000000000000000400000400000080A324
:2B2F5E00000010000010000000000000000000000000000000000000000400000000008000000400000400000080AB71
:2B2F8900020016000016000000000000000000000000000000000000800500000000800100800500800500000008A92E
:2B2FB400000010000010000000000000000000000000000000000000000400000000000E00000400000400000000C5F3
:2B2FDF00000014000014000000000000000000000000000000000000000500000000000700000500000500000080C544
:2B300A00000010000010000000000000000000000000000000000000000400000000000600000400000400000080C524
:2B303500020010000010000000000000000000000000000000000000000400000000000600000400000400000008CF65
:2B306000000010000010000000000000000000000000000000000000000400000000000600000400000400000080C5CE
:2B308B00000050000050000000000000000000000000000000000000001400000000000600001400001400000080C4F4
:2B30B600000010000110000000000000000200000020000000000000000400000000000600000400000400000080D446
:2B30E100000016600116000000000000600000000006000000000000800500000000801600800500800500000080A488
:2B310C00020010000110000000000000008000000000080000000000000400000000800600000400000400000088D6FD
:2B3137000000144001140000000000004000000000040000000000000005000000000007000005000005000000809496
:2B316200000010000110000000000000000000000008000000000000000400000000800000000400000400000080B25B
:2B318D00000010000110000000000000008200000020080000000000000400000000800000000400000400000000BA06
:2B31B800020050000550000000000000000000000000000000000000001400000000000000001400001400000008FD04
:2B31E300000030000330000000000000000301000020100000000000000C00000000000000000C00000C000000008185
:2B320E00000010000110000000000020000000000020000000000000000400000000008000000400000400000080BA6E
:2B323900000016600116000000000006000000000006000000000000800500000000800600800500800500000080A597
:2B326400000010000110000000000000080000000000080000000000000400000000800600000400000400000000DCA0
:2B328F00020014400114000000000004000000000004000000000000000500000000001100000500000500000008F980
:2B32BA00000010000110000000000000000000000000000000000000000400000000801600000400000400000000DD49
:2B32E500000010000110000000000030080000000020080000000000000400000000800800000400000400000080AB7E
:2B3310000000100111300000000000000000000000080000000000000004000000000000000004000024000000009A72
:2B333B00020010000130000000000020100000000020100000000000002C00000000000600002C00000C00000088FCD6
:2B336600000110000110000020000200000000000020000000000000000400000000008400000400000400000080CDFB
:2B339100600116600116000006600000000000000006000000000000800500000000800400800500800500000080968E
:2B33BC00000110000110000000088000000000000000080000000000000400000000800400000400000400000000E7BD
:2B33E700400114400114000004400000000000000004000000000000000500000000001300000500000500000080C067
:2B34120002011000011000001000000000000000000000000000000000040000000080120000040000040000008893A2
:2B343D00000110000110000020088200000000000028080000000000000400000000800C00000400000400000000CD03
:2B346800000190000190000000000100000000000000000000000000002400000000000400002400000400000080F650
:2B349300001130000530000020100201000000000020100000000000000400000000001C00000400002C0000008093D2
:2B34BE00000000000000000000000000000000000000000000000000000000000000001000000000000000000080E66D
:2B34E900000000000000000000000000000000000000000000000000000000000000000000000000000000000080E751
:2B351400800008800008800008800008800008800008000000000020000220000220000120000220000220000280D43D
:2B353F00800008800008800008800008800008800008000000000020000220000220000220000220000220000280E7FE
:2B356A00200002000002000000000000000000002100000000000000000100000000004900000000000000000000D0D7
:2B359500000000000000000000000010000000000100000000000000000000000000000000000000000000000080E793
:2B35C000000000000000000000000000000000000000000000000000000000000000000000000000000000000080E779
:2B35EB00000000800000000008800000002000002008000000000000000000000000000000000200000200000080E7FA
:2B361600200002000002000000000010000000000100000000000000000100000000004900000000000000000000C347
:2B364100000100000000400004400004400000000004000000000000000000000000000100000000000000000080E729
:2B366C00000010000100000000000000000000000000000000000000000000000000000040000040000000000080E73B
:2B369700000000000000000000000000000000000000000000000000000000000000000000000000000000000080E7A1
:2B36C200000000000000000000000000000000000000000000000000000000000000000000000000000000000080E776
:2B36ED0000000000000000C0000CC0000CC0000000000C0000000000000000000000000000000000000000000080E7E7
:2B371800000000000000002000022000022000000000020000000000000000000000000000000000000000000080E7B9
:2B374300000000000000000000000000000000000000000000000000000000000000000000000000000000000080E7F4
:2B376E00000000000000000000000000000000000000000000000000000000000000000000000000000000000080E7C9
:2B379900000000000000000000000000000000000000000000000000000000000000000000000000000000000080E79E
:2B37C400000000000004000000000000000000000000000000000000000000000000000010000010000100000080B67F
:2B37EF00000000000000000000000000000000000000000000000000008000000000000000088000080000000080E738
:2B381A00000000000000000000000000000000000000000000000000000000000000000000000000000000000080E71C
:2B384500000000000000000000000000000000000000000000000000000000000000000000000000000000000080E7F1
:2B387000000000000000000000000000000000000000000000000000000000000000000000000000000000000080E7C6
:2B389B00000000000000000000000000000000000000000000000000000000000000000000000000000000000080E79B
:2B38C600000000000000000000000000000000000000000000000000000000000000000000000000000000000080E770
:2B38F100000000000000000000000000000000000000000000000000000000000000000000000000000000000080E745
:2B391C00000000000000000000000000000000000000000000000000000000000000000000000000000000000080E719
:2B394700401004411004411004411004411004411004010000000010044110044110044110044110044110044180E7F2
:2B397200601886611886611886611886611886611886010000000018866118866118866118866118866118866180E7CF
:02399D00FFFF2A
:00000001FF
