:020000040000FA
:2B000000FFFF62FF2500FFFFFFFFFFFFFFFFFFFFFFFFFFFFFFFFFFFFFFFFFFFFFFFFFFFFFFFFFFFFFFFFFFFFFFFFFF76
:2B002B00601886611886611886611886611886611886010000000018866118866118866118866118866118866180E74F
:2B005600401004411004411004411004411004411004010000000010044110044110044110044110044110044180E71C
:2B008100000000000000000000000000000000000000000000000000000000000000000000000000000000000080E7ED
:2B00AC00000000000000000000000000000000000000000000000000000000000000000000000000000000000080E7C2
:2B00D700000000000000000000000000000000000000000000000000000000000000000000000000000000000080E797
:2B010200000000000000000000000000000000000000000000000000000000000000000000000000000000000080E76B
:2B012D000000000000000000000000000000000000000000000000000000000000000000000000000000000000A0C542
:2B015800000000000000000000000000100000000000000000000000000000000000000000000000400000000080B7F5
:2B018300000000000000000000000000000000000000000000000000000000000000000000000000000000000080E7EA
:2B01AE00000000000000000000000000000000000000000000000000000000000000000000000000000000000080E7BF
:2B01D900000000000000000000000000000200000000000000000000000800000000000000000000000000000088CD9C
:2B020400000000000000000000000000000000000000000000000000000000000000000000000000000000000080E768
:2B022F00000000000000000000000000000000000000000000000000000000000000000000000000000000000080E73D
:2B025A00000000000000000000004000000000000000000000000000000000000000000000000000100000000080F3B6
:2B028500000000000000000000000000000000000000000000000000000000000000000000000000000000000080E7E7
:2B02B000000000000000000000000000000000000000000000000000000000000000000000000000000000000008EF2C
:2B02DB00000000000000000000000100000000000000000000000000000000000000000000000000000400000080B2C1
:2B030600000000000000000000000000000000000000000000000000000000000000000000000000000000000080E765
:2B033100000220000220000200000000000000000020000000000000000000000000000000000000000000000080E7D4
:2B035C00000000000000000020000220000200000200000000000000000000000000000000000000000000000080C5EB
:2B038700001004000000004001000000000000000000010000000000000000000000000000000008002000000000B914
:2B03B200022008000000000000000000000000000000020000000000000000000000000000000000000000000088E587
:2B03DD00000000000000000000000000000000000000000000000000000000000000000000000000000000000080E78E
:2B040800000000000000004000000000000000000000000000000000000000000000000000000000000000000080E326
:2B043300001004000000000001000000000000000000010000000000000000000000000000000008002000000000BDA3
:2B045E000000000000000000000000001080000000000000000000000000000000000000000000004000020000809F82
:2B048900020000000000000000001020000000080000000000000000008000200000000000000000000000000008EE78
:2B04B400800008800008800008000000000000800008000000000020000000000220000220000200000020000280E70E
:2B04DF00800008800008800008800008800008800008000000000020000220000220000220000220000220000280E78F
:2B050A00000000000000000000000100000000000000000000000000000000000000000000000040000400000080F60B
:2B053500020000000000600201600100000000000000000000000000000000000000000000000058800500000008CE22
:2B056000000000000000008100200100000000000000000000000000000000000000000000000048800400000008C733
:2B058B00000000000000400200400100000000000000000000000000000000000000000000000050000500000090C518
:2B05B600000000000000000200200100000000000000000000000000000000000000000000000048800400000008FC27
:2B05E100000000000000000200200100000000000000000000000000000000000000000000000048800400000008FCFC
:2B060C00020000000000000000002100000000000000000000000000000000000000000000000040100400000008EE56
:2B0637000000000000000020000001000000000000000000000000000000000000000000000000C0008C00000080FCAF
:2B066200000000000000000000000100000000000000000000000000000000000000000000000040001000000080B3E9
:2B068D00600201000000000000600100000000000026100000000000000000000000000000000058800900000000D295
:2B06B8000280000000000000002001000000000000000800000000000000000000000000000000480008000000089084
:2B06E300400300000000000000400100000000000024000000000000000000000000000000000050000500000080A7C8
:2B070E00000200000000000000200100000000000030000000000000000000000000000000000048004600000000E9F6
:2B073900000200000000000000200100000000000020000000000000000000000000000000000048000600000000FC08
:2B076400000000000000000000002100000000000000000000000000000000000000000000000040000E00000000D625
:2B078F00022000000000000000400100000000000000020000000000000000000000000000000040040E000000889A66
:2B07BA00000000000000000000004100000010000000000000000000000440000000000000000060000400000080C1DA
:2B07E500000000000000000000E001000000160000000000000000008005580000000000000000F8C005000000808D4B
:2B081000000000000000000000001100000012000000000000000000800448000000000000000040800400000000CE3C
:2B083B00020000000000000000C003000000140000000000000000000005500000000000000000D0100500000008D7A0
:2B086600000000000000000000002100000012000000000000000000800448000000000000000060800400000088E715
:2B089100000000000000000000000300000012000000000000000000800448000000000000000060810400000010DF87
:2B08BC00000000000000000000800100000010000000000000000000000440000000000000000000000401000088B3FC
:2B08E7000000000000000000008043000000141000000000000000000044500400000000000000E0020C00000088A051
:2B091200020000000000000000804000000010000000000000000000000440000000000000000000010400000088B562
:2B093D00000026100000000000E00100000016000000000000000000800558000000000000000018800500000000F9EF
:2B0968000000000800000000008010000000120000000000000000008004480000000000000000008404000000809F47
:2B099300000024000000000000C001000000140000000000000000000005500000000000000000D00005000000808D09
:2B09BE00020020000000000000800000000012000000000000000000800448000000000000000060820400000008DEC2
:2B09E900020020000000000000800A00000012000000000000000000800448000000000000000060800400000000F67F
:2B0A14000400000000000000008001000000300000000000000000000004411000000000000000E0000400000080EB5E
:2B0A3F00020010020000000000804300000014000000000000000000000CC00000000000000000E0008D00000000A3C5
:2B0A6A0002000000000000000000410000001000000000000000000000044000000000000000000020040000008085A1
:2B0A9500020000000000000000600100000016000000000000000000800558000000000000000018800500000008A992
:2B0AC0000000000000000000008001000000120000000000000000008004480000000000000000008804000000808B15
:2B0AEB00000000000000000000C043000000140000000000000000000005500000000000000000900005000000808DD2
:2B0B16000000000000000000000000000000120000000000000000008004480000000000000000808004000000809AB8
:2B0B4100000000000000000000801300000012000000000000000000800448000000000000000080800400000088A8E4
:2B0B6C00020000000000000000804100000030000000000000000000000440000000000000000060000401000000F9C9
:2B0B9700020000000000000000800300000010000000000000000000004540040000000000000000000D000000808BFD
:2B0BC200020000000000000000000000000048000010000000000000000440000000000000000040000201000000CE59
:2B0BED00020000600327100000600600000026000026100000000000800558000000000000000058800700000080C083
:2B0C18000000000080000800000004000000500000000800000000008004480000000000000000480012000000889986
:2B0C4300000000400224000000400100000004000024000000000000000550000000000000000050000700000080B6D5
:2B0C6E00000000000220000000800500000000000020000000000000800448000000000000000048002200000080F4EA
:2B0C99000000000002300000008003000000081000200000000000008004480000000000000000480002000000009994
:2B0CC400020000000000000000800300000020000000000000000000000441100000000000000040000602000088F645
:2B0CEF00000000002000020000800300000010000000020000000000000DD0000000000000000050040E00000080F86C
:2B0D1A000000000000000000008041100001100000000000000000000004400000000000000000600000000000008D9B
:2B0D4500000000000000000000E00116600116000026100000000000800FDC4000000000000000F8C01100000080B833
:2B0D7000000000000000000000000112200112000000080000000000001460200000000000000040000000000080882E
:2B0D9B000200000000000000004043144001140000240000000000000007F00000000000000000D0100904000088BDF2
:2B0DC600000000000000000000800112200112000020000000000000002400000000000000000060000800000080CD43
:2B0DF1000000000000000000008003132001120000200000000000000004600100000000000000E00108000000009B05
:2B0E1C00000000000000000000000810022110000010000000000000000662000000000000000000020600000000A33D
:2B0E4700000000000000000000800314400110100000020000000000000E600200000000000000E0000000000088B3FB
:2B0E72000200000000000000100000100001880001000000000000000004400000000000000000400002010000809B07
:2B0E9D00020000000000000016600816600106600100000000000000800FDC400000000000000058800700000000E55D
:2B0EC8000200000000000000120008122001102001000000000000000004602000000000000000480002000000809899
:2B0EF3000200000000000000144000144001844001000000000000000017F0000000000000000050002700000080C4A2
:2B0F1E00000000000000000012000212200100200100000000000000000400020000000000000048002200000088E761
:2B0F4900000000000000000012000212200108300100000000000000002460000000000000000048000A000000009394
:2B0F7400000000000000000010820110022120002100000000000000000662010000000000000040100602000000EF9B
:2B0F9F00000000000000000010000010000110000100000000000000000E600000000000000000D0000E00000000C5E4
:2B0FCA000A00000000000000000080001000000000000000000000000000040000000000000000002000000000809529
:2B0FF500000000000000000000080200002020088200000000000000000880200000000000000080004000000000EBAA
:2B102000800008800008800000000000000000000008000000000020000000000220000220000200000020000280E71E
:2B104B00800008800008800008800008800008800008000000000020000220000220000220000220000220000280E717
:2B1076000000000000001500020003020C22302030400000000000C080000000AC00000000000080800000000000B3A6
:2B10A100000000000000040000000004001000000410000000000000000000000000000000000000000000000080F781
:2B10CC00000000000000000000000000000000000000000000000000000000000000000000000000000000000080E792
:2B10F700000000000000020000000000002008002000000000000000000000000000000000000000000000000000ED97
:2B112200000000000000150002000206081220201450000000000080800000002800000000000080800000000000ABF2
:2B114D00000000000000000000800000000004100000000000000000000440000000000000000040001000000000FA55
:2B117800000000000000000000000800000000000000000000000000000000000000000000000000000000000000E75D
:2B11A300008000088000088000000000000000000000080000000000000002200000000000000000200000000080C700
:2B11CE00000000000000000000001000000000000000000000000000000000000000000000000000004000000080E244
:2B11F900000000000000000000008000000000000000000000000000000000000000000000000000000002000080CFFA
:2B122400000000000000000000000500000000000000000000000000000000000000000000000000090400000080FF0E
:2B124F00000000000000000000000800000000044000000000000000000000100000000000000000020000000000F521
:2B127A00404004444004444000400000000000000004040000000000000001100000000000000010000101000080B717
:2B12A500000000000000000000000000000000000000000000000000000000000000000000000000000000000080E7B7
:2B12D000000000000000000000000000002000000000000000000000000000000000000000000000008000000080EDE6
:2B12FB00000000000000000000000000000000000000000000000000000000000000000000000000000100000080F651
:2B132600100000000000000000800000000000000000000000000000000000000000000000000020000000000000DD0F
:2B135100000000000000000000020000000000020000000000000000000000080000000000000000000000000080EFF6
:2B137C00000000000000000000000000080000000000000000000000002002020000000000000000022000000080CFA9
:2B13A700000000000000000000000000000000000000000000000000000000000000000000000000000000000080E7B4
:2B13D200000000000001000000000000000000000000000000000000000000000000400000000000000000000090A679
:2B13FD00000000000000000000000040000400000000000000000000000000000000000000000000000000000080E71A
:2B142800020000000000000080000000000000000000000000000000000000000000000000000000000000000000E532
:2B145300000000000200000000000000000000000000000000000000000080000000000800000000000000000080C59F
:2B147E00000000000000000000000000000000000000000000000000000000000000000000000000000000000080E7DC
:2B14A900000000000000000000000000000000000000000000000000000000000000000000000000000000000080E7B1
:2B14D400000000000000000000000008000000000000000000000000000000000000000000000200000000000000CD16
:2B14FF00000000000000000000000000000000000000000000000000000000000000000000001000000000000080E64C
:2B152A00000000000000000000000000000000000000000000000000000000000000000000000000000000000090F610
:2B155500000000000000000000000000000000000100000000000000000000000000000000004000000000000080F2B8
:2B158000000000000000000000000000000000000000000000000000000000000000000000000000000000000080E7D9
:2B15AB00000000000000000000000000000000000000000000000000000000000000000000000000000000000080E7AE
:2B15D600000000000000000000000000000000000000000000000040000440000040000040001000000000000080A2B4
:2B16010000100420000000000100000000000000000201000000000000000020000000000000080000000000000097C7
:2B162C00020000000000000000000000000000000000000000000000000000000000000000000000000000000008ED9C
:2B165700001004000000000001000000000000000000010000000000000000000000000000000000000000000080B71B
:2B168200000000000000000000000000000000000000000000000000000000000000000000000000000000000080E7D6
:2B16AD0000000020000000000000000000000000000A000000000000000000200000000000000800000000000080CF71
:2B16D8000000000000000000000800000020000000000000000000000000000000024000000000000000000000808D70
:2B170300020000002000000000000000000000000000000000000000000000000000000000000001000000000008FF91
:2B172E00800008000008800000800008000008800008000000000020000220000000000220000020000220000200CDF3
:2B175900800008800008800008800008800008800008000000000020000220000220000220000220000220000280E702
:2B178400000000000000000000000010000000000100000000000000000040000000000000000400000000000080E77E
:2B17AF000200000000000000000000A6000000E00301000000000000000058000000000000800500000000000008E4BA
:2B17DA00000000000000000000000018000000800100000000000000000048000000000000800400000000000080E718
:2B180500000000000000000000000004040000C01300000000000000000050000000000000000500000000000000D9AF
:2B183000000000000000000000000000000000800101000000000000000048000000000000800400000000000000EE51
:2B185B00000000000000000000000000100000800100000000000000000048000000000000800400000000000000EE17
:2B188600020000000000000000000018000000800500000000000000000040040000000000008400000000000008A523
:2B18B100000000000000000000000020100000800100000000000000000040000000000000000C00000000000080CCC3
:2B18DC00000000000100000000000000000000000100000000000000000000000000000000000400000000000080A3B8
:2B1907000000006001000000000000460000006001000000000000000000000000000000008005000000000000009E8A
:2B193200020000200100000000000098000000200100000000000000000000000000000000800400000000000088B8EA
:2B195D00000000400100000000000004000000400100000000000000000000000000000000000500000000000008FAD2
:2B198800000000200100000000000000100000200100000000000000000000000000000000800400000000000010AAA4
:2B19B300000000200100000000000020000000200100000000000000000000000000000000800400000000000088811A
:2B19DE00000000000101000000000000000000000101000000000000000000000000000000008400000000000008A3AB
:2B1A0900020000400300000000000018000000000300000000000000000000000000000000000D00000000000008E15C
:2B1A3400000000000100000010000048000000000100000000000000000000000400000000000000000000000000FE2B
:2B1A5F00000000600100000016000006600600600100000000000000000000800500000000801900000000000000B545
:2B1A8A00000000200100000012000010800500200100000000000000000000800400000000000000000000000080D66E
:2B1AB500020000400100000014000084C00300400100000000000000000000000500000000001500000000000008867F
:2B1AE000020000200100000012000000840100200100000000000000000000800400000000001600000000000080E204
:2B1B0B00040000200100000012000008800100200100000000000000000000800400000000000E00000000000080E9D3
:2B1B3600020000000100000010100020800100000100000000000000000000000C00000000004600000000000080F9F4
:2B1B6100020000000101000034000010800100004100000000000000000000000500000000000600000000000000B98B
:2B1B8C00020000000000000040000010000100800000000000000000000000000400000000000401000000000088B119
:2B1BB700000000600A00000006000016600100600400000000000000000000800500000000800700000000000000C3E9
:2B1BE200000000800100000018020012200100000900000000000000000000800400000000000400000000000080FCFD
:2B1C0D00000000402200000024000014400100400000000000000000000000000500000000008F000000000000008F6E
:2B1C3800020000000001000000100012200100004000000000000000000000800400000000000400000000000088E10A
:2B1C6300000000000200000020000012200100800000000000000000000000800400000000008400000000000080EF0A
:2B1C8E00000000000000000000000030000101000000000000000000000000000400000000000602000000000080D796
:2B1CB900000000800100000018000010400300004100000000000000000000000504000000000E00000000000000E3D9
:2B1CE400000000000100000010000010000100000000000000000000000000000400000000000201000000000080919B
:2B1D0F00020000600100000016000016600100600A000000000000000000008005000000008007000000000000888D2E
:2B1D3A000000002001000000120000122001008001000000000000000000008004000000000002000000000000809001
:2B1D6500000000400100000014000014400100400800000000000000000000000500000000000704000000000000C58C
:2B1D900000000020010000001200001220010000000100000000000000000080040000000000020000000000000099A2
:2B1DBB00020000200100000012000012200100000200000000000000000000800400000000002A00000000000008A33A
:2B1DE600020000000101000010100010040101000000000000000000000000000C00000000000602000000000000F391
:2B1E1100040000000300000030000010000300800100000000000000000000000400000000000E00000000000080FA4F
:2B1E3C00020000000100000000000010000100000100000000000000000000000400000400000401000000000080B128
:2B1E670002000060010000009E000016E02100600100000000000000000000800500800500800500000000000080CBFD
:2B1E92000200002001000000180400120000002001000000000000000000008004008004000006020000000000888794
:2B1EBD0000000040010000003C000014C02300400100000000000000000000000500000500000F00000000000000C369
:2B1EE8000000002001000000400000128009002001000000000000000000008004008004000000000000000000808B9F
:2B1F1300000000200100000020000012800100200100000000000000000000800400800400000E04000000000080CB49
:2B1F3E00020000000300000018000010900300004100000000000000000000000400000400000E000000000000888E4B
:2B1F6900000000000100000018000030800100000100000000000000000000000404000404000E00000000000088BA22
:2B1F94000000008008000000800000000000008009000000000000400000000002400002000006010000000000008086
:2B1FBF000000006000000000060000A6600800600200000000000058000000802158801100800700000000000088F33D
:2B1FEA0000000000010000001800001880810080010000000000004800000000244800040000040200000000000890C3
:2B20150002000040040000000401001C440000400600000000000050000000000150001900000D00000000000088C799
:2B2040000000000000000000001000180000010040000000000000480000000000480000000006000000000000009CDA
:2B206B0000000080000100002000001800020000000000000000004800000000024C00020400460000000000008084A9
:2B209600000000000200000000000018000000800100000000000040040000000840040800002000000000000080C785
:2B20C100020000000100000018000018800100800100000000000040000000000450000400000E000000000000888B06
:2B20EC00020000000400000000000010000400800000000000000000000400000240000440001000000000000000DFB6
:2B21170004001E620000000086000036620000602000000000000000800500801158800558800100000000000080CA65
:2B214200020018800500000018040010800300000200000000000000800400001448800448000000000000000080F105
:2B216D0002001C50020000003C000034410200400000000000000000000500000150000550002100000000000080E7B1
:2B219800020038000001000018000080000001800100000000000000800400000048800448004000000000000008D215
:2B21C30000001800020000001800003800020000000100000000000080040000024C800448000000000000000000AE38
:2B21EE00000018000000000018000018100000000000000000000000004400000840040C400406000000000000008CFC
:2B221900000018800100000018000038800100001200000000000000000400000440000440000000000000000000BBD7
:2B224400000000000001000000000000010000000000000000000000208000000000000000004000000000000080DA33
:2B226F00000000000000000020010020008200001000000000000000000000084880208080040800000000000080ED08
:2B229A00800008000008800000800000000008000008000000000000000000000000000000000020000220000200EF46
:2B22C500800008800008800008800008800008800008000000000020000220000220000220000220000220000280E78B
:2B22F000000002200000002B020000240010B0020400000000000080800000001188001000000C00000000000000B520
:2B231B00000000000000000000000000000000000000000000000000000000000000000000000000000000000080E730
:2B234600000000000000110000000000000802001140000000000000000000000000000000000000000000000000827E
:2B237100000000000000000000000008002000000000000000000000000000000000000000000000000000000000ED2C
:2B239C00000002200000110A020000240018A200144000000000008080000000118800100000080000000000008085EF
:2B23C700000000400001000000000004400000801000000000000000000000000104000104000000000000000000BE0E
:2B23F200000000008000000040080000098000009000000000000000000000000000000000000100000000000080BAA4
:2B241D00000000000000000000000000000000000000000000000000000000000000000000000000000000000080E72D
:2B244800000000000000000000000000000000000000000000000000000000000000000000004000000000000080E3C6
:2B247300000000000000000000000000010000008000000000000000000000000000000000000406000000000080CA69
:2B249E00000000000000000000000000402000000001000000000000000000000000000000000000000000000080B57D
:2B24C900080000000400000000000000004000000000000000000000000000000000100000000000000000000080BF4D
:2B24F400000000000000000000000000000000000000000000000000000000000000000000000401000000000090A286
:2B251F00000000000000000000000000000000000000000000000000000000000000000000000000000000000080E72A
:2B254A00000000000000000000020000000000000000000000000000080000008000000000000000000000000080E577
:2B257500020024100000000000000008180200400201000000000000000000000000000000000800000000000080D741
:2B25A000000000000000000000000000000000000000000000000000000000000000000000000000000000000080E7A9
:2B25CB00000000000000000018000000000000000000000000000000000000000200000020000000000000000000FEAD
:2B25F600000000000000000000000000000200000000000000000000000800000000000000000000000000000000C5EB
:2B262100000000000000000000000000000000000000000000000000000000000000000000000000000000000080E727
:2B264C00100000000000000000010000000000000000000000000000000000000000000000000000000000400080B6DC
:2B267700000000000000000000000000000000000000000000000000000000000000000000000000000000000008EF41
:2B26A200000000000000000000000000000000000000000000000000000000000000000000000000000000000080E7A6
:2B26CD00000000000020000000000000000000000000000000000000000000000000000800000000000000000020E7B3
:2B26F800000000000000000000000000000000000000000000000000000000000000000000000000000000000080E750
:2B272300000000000000000000000000000000000000000000000000000000000000000000000000000000000080E724
:2B274E00000000000000000008000000000000000000000000000000000000000000000000000000000020000000CD6B
:2B277900000000000000000000000000000000000000000000000000000000000000000000000000000000400080A7CE
:2B27A400100000000000000000000000000000000000000000000000000000000000000000000000000000000028DDF5
:2B27CF00000000000000000000001000000000000000000000000000000000000000000000000000000000004080E22D
:2B27FA00000000000000000000000000000000000000000000000000000000000000000000000000000000000080E74D
:2B282500000000000000000000000000000000000000000000000000000000000000000000000000000000000080E721
:2B285000000000000000000000000000000000000000000000000000000000000000000000000000000000000080E7F6
:2B287B00001004000000000001480000000000000000010000000000000000000000000000000000000008002000F5B7
:2B28A600020000000000000000000000000000000000000000000000000000000000000000000000000000000008ED10
:2B28D100021004000000000001000000000000000000010000000000000000000000000000000000000000000080B58F
:2B28FC00040000000000000000000000000000000000000000000000000000000000000000000000000000000080E34A
:2B29270002000000000000000048000000000000000000000000000000000000000000000000000000002800A0008DE6
:2B2952000200000000000000000480000000000000000000000000000000000000000000000000000000004000828989
:2B297D00020000000000028000000000000000000000000000000000000000000000008000200000000000000008CF34
:2B29A800800008800000000000000008800008800008000000000020000220000220000000000220000200000080E7F5
:2B29D300800008800008800008800008800008800008000000000020000220000220000220000220000220000280E776
:2B29FE00000000000000000000000100000000000000000000000000000000000000000000000000000040000480F6F3
:2B2A2900020000000000000086600100000000000000000000000000000000000000000000000000000058800588FC38
:2B2A5400000000000000000000300100000000000000000000000000000000000000000000000000000048800408CE84
:2B2A7F00000000000000000014400100000000000000000000000000000000000000000000000000000050000590F6FC
:2B2AAA0000000000000000005820010000000000000000000000000000000000000000000000000000004880048883B1
:2B2AD500000000000000000018200100000000000000000000000000000000000000000000000000000048800488C782
:2B2B0000020000000000000018010300000000000000000000000000000000000000000000000000000040104488D29E
:2B2B2B000000000000000000180003000000000000000000000000000000000000000000000000000000C0000C00CDCB
:2B2B5600000000000000000010000100000000000000000000000000000000000000000000000000000040000480E798
:2B2B8100000000000000000016600100000000000000000000000000000000000000000000000000000058800580E76E
:2B2BAC00020000000000000012200100000000000000000000000000000000000000000000000000000048800408ED08
:2B2BD700000000000000000014400100000000000000000000000000000000000000000000000000000050000580E7C2
:2B2C0200000000000000000012200100000000000000000000000000000000000000000000000000000048800480E741
:2B2C2D00000000000000000012200100000000000000000000000000000000000000000000000000000048800480E716
:2B2C5800000000000000000010000100000000000000000000000000000000000000000000000000000040080481FF74
:2B2C83000200000000000000100111000000000000000000000000000000000000000000000000000000C0000C08ED41
:2B2CAE00000000000010000110000100000000000000000000000000000000000000000440000000000000010480A26E
:2B2CD900000000000016600116600100000000000000000000000000000000000000800558000000000018800580A345
:2B2D0400000000000012200112200100000000000000000000000000000000000000800448000000000080800480AB43
:2B2D2F00000000000014400114400100000000000000000000000000000000000000000550000000000050000508EF2E
:2B2D5A00020000000012200112200100000000000000000000000000000000000000800448000000000060800488C7E7
:2B2D8500020000000012200112200100000000000000000000000000000000000000800448000000000060820410DC1D
:2B2DB000020000000030000330000300000000000000000000000000000000000000004440040000000060044408CF89
:2B2DDB00020000000030400330400300000000000000000000000000000000000000000CD0000000000060000D88CF45
:2B2E0600000000000010000100000400000000000000000000000000000000000000000440000000000060000209FFDE
:2B2E31000000000000166001066202000000000000000000000000000000000000008005580000000000F8C007008772
:2B2E5C00000000000012200100080000000000000000000000000000000000000000800448000000000040202280AB97
:2B2E87000000000000144001044081000000000000000000000000000000000000000005500000000000D0000700DCFE
:2B2EB200000000000012200100810100000000000000000000000000000000000000800448000000000060002288B1B9
:2B2EDD00020000000012200100801300000000000000000000000000000000000000800448000000000060010A809AB1
:2B2F0800020000000010000118801100000000000000000000000000000000000000000441100000000000000682A263
:2B2F3300020000000010411100800100000000000000000000000000000000000000000CC00000000000E0020E00BE14
:2B2F5E00020000000010000118000100000000000000000000000000000000000000000440000000000000000400A92B
:2B2F890000000000001660013E700100000000000000000000000000000000000000800558000000000018C00588D1E4
:2B2FB40000000000001220011028010000000000000000000000000000000000000080044800000000000080040083B3
:2B2FDF00000000000014400134400100000000000000000000000000000000000000000550000000000090040500858A
:2B300A00000000000012200158200100000000000000000000000000000000000000800448000000000000840480C358
:2B303500000000000012200138200100000000000000000000000000000000000000800448000000000000800408A9E3
:2B306000020000000030000380000100000000000000000000000000000000000000000441040000000060000401D20F
:2B308B00020000000034000318401100000000000000000000000000000000000000000DC0000000000000000D80A876
:2B30B6000200000000100001108000000000000000000000000000000000000000000004400000000000400002018A3B
:2B30E100020000000016600116E00301000000000000000000000000000000000000800FDC400000000058800700DFE8
:2B310C00000000000012200112800400000000000000000000000000000000000000001460200000000048001208FEDB
:2B313700000000000014400114C001000000000000000000000000000000000000000007F0000000000050000780CDA8
:2B316200000000000012200112800000000000000000000000000000000000000000000400020000000048000280F6B7
:2B318D00000000000012200112800A00000000000000000000000000000000000000002460000000000048002A80B022
:2B31B80002000000001000011080810000000000000000000000000000000000000000066201000000004008068AC6C1
:2B31E300000000000014011114810300000000000000000000000000000000000000000E600000000000D0000E80FF38
:2B320E0000000000001000011000000000000000000000000000000000000000000000044000000000006000008090C0
:2B32390000000000003E7003176004000000000000000000000000000000000000008005D84000000000F8C01100DDFB
:2B326400000000000010808112000000000000000000000000000000000000000000800460200000000040200080B880
:2B328F0002000000005CC003144000010000000000000000000000000000000000000005F00000000000D000098CAC98
:2B32BA00000000000010000812001000000000000000000000000000000000000000800400000000000060004080E823
:2B32E5000000000000908001120000000000000000000000000000000000000000008004E00100000000E001000092C3
:2B331000000000000018880530800100000000000000000000000000000000000000004460000000000000020600C3CD
:2B333B00000000000038800134000000000000000000000000000000000000000000000D600200000000E0000008E93A
:2B336600020000000010000118800000000000000000000000000000000000000000000440000000000040001008B93C
:2B33910002000000003E70033FF00301000000000000000000000000000000000000800F5C000000000058800910DA75
:2B33BC00020000000050808110880800000000000000000000000000000000000000001448000000000048000088FDCA
:2B33E70002000000001CC00334C00100000000000000000000000000000000000000000F5000000000005000050C879E
:2B34120000000000009000001880080000000000000000000000000000000000000000244800000000004800060C8F0A
:2B343D00000000000010800958800200000000000000000000000000000000000000000448000000000048000680BA1D
:2B346800000000000018880100808100000000000000000000000000000000000000000642100000000040104600DACF
:2B3493000200000000388005B8800300000000000000000000000000000000000000000ED00000000000D0000680835D
:2B34BE001A0000000000100000010000000000000000000000000000000000000000000004000000000000040080A888
:2B34E900000000000020008220004000000000000000000000000000000000000000000880200000000080000001F994
:2B351400800008800000000000000008800008800008000000000020000220000220000000000220000200000080E77D
:2B353F00800008800008800008800008800008800008000000000020000220000220000220000220000220000280E7FE
:2B356A000000000000220002320000300000000000000000000000000000000000008A00800200000000A8000080CDAF
:2B359500000000000000000000000004001000000400000000000000000000000000000000000000000000000080E291
:2B35C000000000000000110000000000000000001040000000000000000000000000000000000000000000000080B34C
:2B35EB00000000000000000000000000000000000000000000000000000000000000000000000000000000000080E74E
:2B361600000000000022110222000024001000001440000000000000000000000000820080020000000088000080B6E8
:2B364100000000000010000110800100000000000000000000000000000000000000000000000000000020000000CDCF
:2B366C00000000000000000000000000000000000000000000000000000000000000000220000000000000010280C4CA
:2B369700000000000000088000088000000000000000000000000000000000000000000002200000000000200080C76F
:2B36C200000000000004400004400000000000000000000000000000000000000000000000000000000000004080E3B2
:2B36ED00000000000000000000000000000000000000000000000000000000000000000000000000000010000084B668
:2B37180000000000000000000012000000000000000000000000000000000000000000000000000000000000000CBDAB
:2B374300000000000000004000000000000000000000000000000000000000000000000000100000000000000080F398
:2B376E00000000000000044010044100000000000000000000000000000000000000000001100000000040100481E7CA
:2B379900000000000000000000000000000000000000000000000000000000000000000000000000000000000080E79E
:2B37C400000000000000000000002000000000000000000000000000000000000000000000000000000000008080EDCD
:2B37EF00000000000000000020002001000000000000000000000000000000000000000000000000000000000082F7F5
:2B381A00000000000000000000000000000000000000000000000000000000000000000000000000000000000080E71C
:2B384500000000000000002000000000000000000000000000000000000000000000000000080000000000000080EDC3
:2B387000000000000000080000000000000000000000000000000000000000000000002002020000000000022080CF90
:2B389B00000000000000000000000000000000000000000000000000000000000000000000000000000000000080E79B
:2B38C600000000000000000000000000000000000000000000000000000000000000000000000000000000000080E770
:2B38F100000000000000000000000000000000000000000000000000000000000000000000000000000000000080E745
:2B391C00000000000000000000000000000000000000000000000000000000000000000000000000000000000080E719
:2B394700401004411004411004411004411004411004010000000010044110044110044110044110044110044180E7F2
:2B397200601886611886611886611886611886611886010000000018866118866118866118866118866118866180E7CF
:02399D00FFFF2A
:00000001FF
