:020000040000FA
:2B000000FFFF62FF2500FFFFFFFFFFFFFFFFFFFFFFFFFFFFFFFFFFFFFFFFFFFFFFFFFFFFFFFFFFFFFFFFFFFFFFFFFF76
:2B002B00601886611886611886611886611886611886010000000018866118866118866118866118866118866180E74F
:2B005600401004411004411004411004411004411004010000000010044110044110044110044110044110044180E71C
:2B008100000000000000000000000000000000000000000000000000000000000000000000000000000000000080E7ED
:2B00AC00000000000000000000000000000000000000000000000000000000000000000000000000000000000080E7C2
:2B00D700000000000000000000000000000000000000000000000000000000000000000000000000000000000080E797
:2B010200000000000000000000000000000000000000000000000000000000000000000000000000000000000080E76B
:2B012D00000000000000000000000000000000000000000000000000000000000000000000000000000000000080E740
:2B015800000000000010000000000000000000000000000000000000000000000000000000000000000000000008FE66
:2B018300000000000000000000000000000000000000000000000000000000000000000000000000000000000080E7EA
:2B01AE00000000000000000000000000000000000000000000000000000000000000000000000000000000000080E7BF
:2B01D90000000000000000020000000000004000000000000000000000000000000000000000000000100000008080A9
:2B020400000000000000000000000000000000000000000000000000000000000000000000000000000000000080E768
:2B022F00000000000000000000000000000000000000000000000000000000000000000000000000000000000080E73D
:2B025A00000000000000000000000000000000000000000000000000000000000000000000000000000000000080E712
:2B028500000000000000000000000000000000000000000000000000000000000000000000000000000000000080E7E7
:2B02B000000000000000000000000000000000000000000000000000000000000000000000000000000000000008EF2C
:2B02DB00000000000000000000000000000000000000000000000000000000000000000000000000000000000080E791
:2B030600000000000000000000000000000000000000000000000000000000000000000000000000000000000080E765
:2B033100000000000000000000000000000000000000000000000000000000000000000000000000000000000080E73A
:2B035C00000000000000400000000000000000000000000000000000000000000000000000000000000800000000A787
:2B038700000000000000000000000000000000000000000000000000000000000000000010040000800010004000EF78
:2B03B200020000000000000000000000000000000000000000000000000000000000000000000000000000000008ED29
:2B03DD00000000000000000000000000000000000000000000000000000000000000000000000000000000000080E78E
:2B040800000000000000000000000000000000000000000000000000000000000000000000040000000010004080F6FF
:2B043300000000000000000000000000000000000000000000000000000000000000000030000000800000000000DC12
:2B045E00000000000000020000000008000000000000000000000000000000000000000000000000000000000000ED7C
:2B048900020000000000002020040000000000000000000000000000000000000000000000000000000000000008C931
:2B04B400800008800000000000800000800008800008000000000020000220000220000220000220000220000280E752
:2B04DF00800008800008800008800008800008800008000000000020000220000220000220000220000220000280E78F
:2B050A00000000000000000000000000000000000000000000000000000000000000000000000000000000000080E75F
:2B053500020000000000000000000000000000000000000000000000000000000000000000000000000000000008EDA4
:2B056000000000000000000000000000000000000000000000000000000000000000000000000000000000000080E709
:2B058B00000000000000000000000000000000000000000000000000000000000000000000000000000000000080E7DE
:2B05B600000000000000000000000000000000000000000000000000000000000000000000000000000000000080E7B3
:2B05E100000000000000000000000000000000000000000000000000000000000000000000000000000000000080E788
:2B060C00020000000000000000000000000000000000000000000000000000000000000000000000000000000008EDCC
:2B063700000000000000000000000000000000000000000000000000000000000000000000000000000000000080E731
:2B066200000000000000000000000000000000000000000000000000000000000000000000000000000000000080E706
:2B068D00000000000000000000000000000000000000000000000000000000000000000000000000000000000080E7DB
:2B06B800020000000000000000000000000000000000000000000000000000000000000000000000000000000008ED20
:2B06E300000000000000000000000000000000000000000000000000000000000000000000000000000000000080E785
:2B070E00000000000000000000000000000000000000000000000000000000000000000000000000000000000080E759
:2B073900000000000000000000000000000000000000000000000000000000000000000000000000000000000080E72E
:2B076400000000000000000000000000000000000000000000000000000000000000000000000000000000000080E703
:2B078F00020000000000000000000000000000000000000000000000000000000000000000000000000000000008ED48
:2B07BA000000000000000000000000008000080000000000000000000004000002000000000000000000000000808185
:2B07E500000000000000000000000000E0000E00000000000000000080050080030000000000000000000000008081F2
:2B081000000000000000000000000000800008000000000000000000000400000200000000000000000000000080812E
:2B083B00020000000000000000000000C0000C0000000000000000000005000003000000000000000000000000088B29
:2B0866000000000000000000000000008000080000000000000000000004000002000000000000000000000000088948
:2B089100000000000000000000000000800008000000000000000000000400000200000000000000000000000090908E
:2B08BC00000000000000000000000000800008000000000000000000000402000200000000000000000000000008A9D0
:2B08E7000000000000000000000000008008880000000000000000000004000022000000000000000000000000088B1D
:2B091200020000000010000000000000000110000000000000000000000440000400000000000000001000000008B97E
:2B093D00000000000016000000000000600116000000000000000000800558800500000000801800800100000080DB2C
:2B096800000000000012000000000000000110000000000000000000000440000400000000800600000000000000FC77
:2B09930000000000001400000000000040011400000000000000000000055000050000000000270000190000000086B0
:2B09BE0002000000001200000000000000011000000000000000000000044000040000000080060000060000008890FD
:2B09E9000000000000120000000000000001100000000000000000000004400004000000008006000006000000009A52
:2B0A1400000000000030000000000000000110000000000000000000001440010400000000000000000000000080900D
:2B0A3F00000000000010000000000000001130020000000000000000000440000C04000000000000000000000000D312
:2B0A6A00000000000040000000000010000110000000000000000000000440000400000000000000200000000080D642
:2B0A9500020000000026000000000016600116000000000000000000800558800500000000000088800F04000088B4C8
:2B0AC000000000000008000000000012000110000000000000000000000440000400000000000068010002000080D5D8
:2B0AEB00000000000064000000000014400114000000000000000000000550000500000000000070000900000000A39D
:2B0B1600000000000000080000000012000110000000000000000000000440000400000000000068001000000000F5D4
:2B0B4100020000000008000000000012000110000000000000000000000440000400000000000068000800000088FE1E
:2B0B6C000200000000080800000000300001100000000000000000000004400024000000000000000000000000889883
:2B0B9700040000000028000000000010000550000000000000000000001440010400000000000000000600000010EB48
:2B0BC200020000000010000010000000000110000000000000000000000420000400000000000000008000000008C75E
:2B0BED00020000000016000016000026680116000000000000000000800538800500000000801E00800100000008EAB7
:2B0C1800020000000012000012000042000110000000000000000000000420000400000000800000001000000088A256
:2B0C4300000000000014000014000034400114000000000000000000000530000500000000002700000700000080A548
:2B0C6E0000000000001200001200001A000110000000000000000000000420000400000000800000000000000080F4F0
:2B0C990000000000001200001200007A000110000000000000000000000420000400000000801600001800000000F4B7
:2B0CC400020000000030000030000018080550000000000000000000001420011400000000000600000600000088DF72
:2B0CEF0000000000001400001400003C000330000000000000000000000CA0000400000000000000000600000000D8B5
:2B0D1A00000000000000010100000008010110000000000000000020000240000400000000000000000202000000FC2C
:2B0D450000000000003E60010000002E6001160000000000000000388003588005000000000000008001000000009E88
:2B0D70000000000000002001000000180001100000000000000000200002400004000000000000000004010000009B08
:2B0D9B0002000000001C50010000003C4101140000000000000000300003500005000000000000000009000000889E75
:2B0DC600000000000000200100000008040110000000000000000020000240000400000000000000000000000000DA84
:2B0DF100000000000080200100000038000110000000000000000020000240000400000000000000008A00000000C736
:2B0E1C00000000000018000300000008080990000000000000000020002240100400000000000000000000000080DFF2
:2B0E47000200000000184001000000180001100000000000000000A00102C0001400000000000000004400000008FC3D
:2B0E7200000000000100010110000010810008000000000000000040000240000200200060000600008000000080CFD0
:2B0E9D0000000060013E600116000036E0000E0000000000000000588003588003E80000E8811E008007000000808F35
:2B0EC800000000200100200112000058800008000000000000000040000240000208200068800600000004000080E3CA
:2B0EF30000000040011C41011400001CC0000C000000000000000050000350000370000070000700000900000000D1D2
:2B0F1E00020000200100200112000010800008000000000000000040000240000208000008800000000600000088A375
:2B0F49000000002001402001120000389000080000000000000000400002400002E8010008800000001E00000080B1D5
:2B0F74000000000003180003300000108804480000000000000000402002400012600000000000000000000000009379
:2B0F9F000000000001180001100000188000080000000000000000C0002240020A00000000000000000000000080F6B9
:2B0FCA00000000000000010200100000020000000000000000000000000000000000000000000200000000000080F471
:2B0FF500000000001200000200000020000000000000000000000000000000000020000020000020000000000080E6D7
:2B102000800008000000000000800000800008800008000000000020000220000210000210000110000220000200EF03
:2B104B00800008800008800008800008800008800008000000000020000220000220000220000220000220000280E717
:2B107600000000000030282A02000080200002000000000000000000000000000108000000804C0080220000008085AD
:2B10A100000000000000000000000000000000000000000000000040000000000010000004000004001000040080B781
:2B10CC00000000000000000000000000000000000000000000000000000000000000000000000000000000000080E792
:2B10F700000000000000000000000000800008000000000000000000000220000200000000000000000000000080C5DD
:2B112200000000000020280A02000080200002000000000000000040000000000118000004804804803000040080A0AF
:2B114D0000000040000440000400000C000000000000000000000000000000000000000000000000000000000000AF34
:2B117800000000000008000000000088000000000000000000000000000000020000000000000000002002000000C7D1
:2B11A300000000000000000080000000000000000000000000000000000000000000000000000000000000000000E7BA
:2B11CE00000000000000000000000000000000000000000000000000000000000000000000000000000000000080E78F
:2B11F900080000000010000000000000000000000000000000000000000000000002000000000000000002000080FE31
:2B122400000000000000060000000000060000000000000000000000008000000000080000000000008000000080EF1C
:2B124F00000000000000000000000000000000000000000000000000000000000000000000000000000000000080E70D
:2B127A0000000000002000000000004000000000000000000000000000000000000000000000000000000000008081E8
:2B12A500000000000000000000000000000100000000000000000000000000000000000000000000000400000080B2E7
:2B12D000000000000000000000000000000000000000000000000000000000000000000000000000000000000080E78C
:2B12FB000000000000001000000000000C0000000000000000000000000000000000000000000000000000000080FB31
:2B1326000000000000000000000000000000000000000000000000001000000000001000000000001000010000A0C506
:2B135100080000800000000000000000000000000000000000000000000000000000000000000000000000000000E702
:2B137C00000000000000000000100000000000000000000000000000000000000000000000000000000000000080F7BF
:2B13A700000000000000000000000000000000000000000000000000000000000000000000000000000000000080E7B4
:2B13D2000000000000000000000001000000000000000000000000000000000000000004000000000000000000C0F635
:2B13FD00000000000000000000000000000000000000000000000000000000000000000000000000000000000080E75E
:2B142800000000000000000000000000000000000000000000000000000000000000000000000000000000000080E732
:2B145300080000004000000000000000000000000000000000000000000001000000000000000000000000000090EAAB
:2B147E00000000000000000000000000000000000000000000000000000000000000000000000000000000000080E7DC
:2B14A900020000000000000000000000000000000000000000000000000000000000000000000000000000000080E5B1
:2B14D400000000000000000000000000000000000000000000000000000000000000000000000000000000000080E786
:2B14FF00000000000000000000000000000000000000000000000000000000000000000000000000000000000080E75B
:2B152A000800000000000000000000000000000001000000000000000000000000000000000000000000400000D0EF8E
:2B155500000000000000000000000000000000000000000000000000000000000000000000000000000000000080E704
:2B158000000000000000000000000000000000000000000000000000000000000000000000000000000000000080E7D9
:2B15AB00000220000200000000000200000000000000000000000000000000000000000000000000000000000080E788
:2B15D600000004000000000000000000000000000000000000000010000000000000000000000000000000000080B6A0
:2B160100000000000000000000200000000000200080000000000008000000000000000000040000000010004802DEBA
:2B162C00020000000000000000000000000000000000000000000000000000000000000000000000000000000008ED9C
:2B165700000000000000000000000000000000000000000000000000000000000000000000000000000000000008EF71
:2B168200000000000000000000000000000000000000000000000000000000000000000000040000000010004090E772
:2B16AD00000000000000000000200000000000200080020000000008000000000000000000000000000000000C8B9120
:2B16D800000000102000000000001000000000000000000000000000408000000000004000000000000000000008B0EF
:2B1703000202010000000000000000000000000000000000000000000000000000000000804000000000000000889FCF
:2B172E00000000000008800008000008800008800008000000000000000020000220000000000220000220000280E7F9
:2B175900800008800008800008800008800008800008000000000020000220000220000220000220000220000280E702
:2B178400000000000000000000000000000000000000000000000000000000000000000000000000000000000080E7D3
:2B17AF00020000000000000000000000000000000000000000000000000000000000000000000000000000000008ED18
:2B17DA00020000000000000000000000000000000000000000000000000000000000000000000000000000000080E57D
:2B180500040000000000000000000000000000000000000000000000000000000000000000000000000000000080E351
:2B183000020000000000000000000000000000000000000000000000000000000000000000000000000000000080E526
:2B185B00020000000000000000000000000000000000000000000000000000000000000000000000000000000080E5FB
:2B188600020000000000000000000000000000000000000000000000000000000000000000000000000000000008ED40
:2B18B100000000000000000000000000000000000000000000000000000000000000000000000000000000000080E7A5
:2B18DC00000000000000000000000000000000000000000000000000000000000000000000000000000000010080E67A
:2B190700000000000000000000000000000000000000000000000000000000000000000000000000000098000080FE9F
:2B193200020000000000000000000000000000000000000000000000000000000000000000000000000008040088E113
:2B195D00000000000000000000000000000000000000000000000000000000000000000000000000000050000008BA4D
:2B1988000000000000000000000000000000000000000000000000000000000000000000000000000000680000109824
:2B19B3000000000000000000000000000000000000000000000000000000000000000000000000000000E8200008A158
:2B19DE00000000000000000000000000000000000000000000000000000000000000000000000000000060200008A9AD
:2B1A09000200000000000000000000000000000000000000000000000000000000000000000000000000E00000888BBD
:2B1A3400000110000100000000000100000000000400000000000040000400000000000440000000000000000080A3C5
:2B1A5F00600116600100000000600100000000600200000000000058800500000000800558000000000000000080A5E2
:2B1A8A00200112200100000000200100000000200200000000000048800400000000800448000000000000000080E59D
:2B1AB5004201144001000000004001000000004003000000000000500005000000000005500000000000000000089E9A
:2B1AE000220112200100000000200100000000A08100000000000048800400000000800448000000000000000000D4D7
:2B1B0B00240112200100000000200100000000A00100000000000048800400000000800448000000000000000000DA23
:2B1B3600020110000100000000000100000000808100000000000040100401000000000441100000000000000000F4D0
:2B1B61004201110201010000004021000000008003000000000000C0000C00000000000DD0000000000000000000DE96
:2B1B8C000201100001000000000010000000000000000000000000200404000000000004400000000000000000089FF7
:2B1BB700600116600100000000E003000000006006000000000000B8800500000000800558000000000098010080B5FA
:2B1BE200200112200100000000000400000000200000000000000060800400000000800448000000000008400080D018
:2B1C0D00400114400100000000C00300000000400301000000000070010500000000000550000000000050000000D81C
:2B1C3800220112200100000000000800000000A00100000000000020810400000000800448000000000068000008E4BD
:2B1C6300200112200100000000000000000000A083000000000000608004000000008004480000000000681000009126
:2B1C8E000001100001000000008001000000008081000000000000204004000000000004400000000000602000809E51
:2B1CB9004021101021000000008001000000008003000000000000E00044000000000045500400000000E0000080C479
:2B1CE400000110001000000000000100000000000000000000000040004000000000000440040000000000000080B3B8
:2B1D0F00620116E00300000000600100000000000000000000000058800F000000008005D8000000000000000088E53B
:2B1D3A00200112000000000000200100000000000000000000000048000000000000800460020000000000000080B2CA
:2B1D6500400114C00900000000400100000000000000000000000050002700000000000570000000000000000080ED9B
:2B1D9000200112000400000000200100000000000000000000000048001000000000800440010000000000000080D65D
:2B1DBB002001120002000000002001000000000000000000000000480008000000008004E00000000000000000089A51
:2B1DE6000201108001000000000001000000000000000000000000400006000000000004414000000000000000009FD3
:2B1E1100022114820100000000400101000000000000000000000040040600000000000CE0000000000000000000F97B
:2B1E3C00021108010100000000000100000000000000000000000040000400000000000440000000000000000000FCD9
:2B1E670062032E600100000000600100000000000000000000000058800500000000800558000000000000000000FC45
:2B1E9200800958200100000000200100000000000000000000000048800400000000800448000000000000000088AB37
:2B1EBD00C0013C400100000000400100000000000000000000000050000500000000000550000000000000000080C58C
:2B1EE800000508200100000000200100000000000000000000000048800400000000800448000000000000000000BA2E
:2B1F1300800398200100000000200100000000000000000000000048800400000000800448000000000000000000C5E9
:2B1F3E00020109100100000000000100000000000000000000000040000401000000000440000000000000000088E465
:2B1F6900800338400101000000000101000000000000000000000050040D00000000004440040000000000000000A3C2
:2B1F9400000110000100000000000100000000000000000000000020040400000000004040000000000000000080C522
:2B1FBF006001166001000000006001000000006020000000000000B8800500000000800F58000000000098040080DC22
:2B1FEA002001122001000000002001000000008010000000000000608004000000000010480000000000202000008BC0
:2B2015004201144001000000004001000000004002000000000000F00105000000000007500000000000100000889F01
:2B204000200112200100000000200100000000000001000000000020820400000000002048000000000000400080959C
:2B206B002001122001000000002001000000008002000000000000608004000000000000480000000000A0000080897E
:2B209600000110000100000000000100000000808000000000000020400400000000000640100000000020200000F121
:2B20C1000001155021000000000021000000008002000000000000E00045000000000006C00000000000A0000008F245
:2B20EC00021108011000000000001000000000001000000000000040004000000000004040040000000000000000F980
:2B21170062032EE00300000000E00300000000600000000000000058800F00000000800FD8000000000018200000A5B9
:2B214200820158000800000000000000000000800000000000000048002000000000000060000000000020000000A384
:2B216D00C2091CC00100000000C005000000004080000000000000500007000000000017700200000000904000809951
:2B219800000588000000000000000400000000000001000000000048000000000000000040000000000000400088AE8C
:2B21C3008001180004000000000000000000008002000000000000480010000000000020600100000000A000000083D6
:2B21EE00000109900100000000800100000000808000000000000040100600000000000640400000000020200080AC62
:2B2219008003388001000000008001000000008002000000000000D00006000000000006E00000000000A0000080DCA3
:2B2244000A0220000000000000000000000000800000000000000080000000000000000080000000000020000000C7DC
:2B226F00000020008200000000001200000000000000000000000080000802000000004800000000000000000000E8D6
:2B229A00000000000008800008000008800008000008000000000000000020000220000000000220000200000200CDBC
:2B22C500800008800008800008800008800008800008000000000020000220000220000220000220000220000280E78B
:2B22F0002000820C003A00000000003000000000000000000000000080A002000000800808200000000000000080C198
:2B231B00000000000000000000000000000000000000000000000000000000000010000004000004001000040080F3F8
:2B234600000000000000000000000000400004000000000000000000000000000100000000000000000000000080F6B1
:2B237100000000000000000000000000000000000000000000000000000000000000000000000000000000000080E7DA
:2B239C0020008208002200000000002040000400000000000000000080200200011080080C200004001000040000C0A7
:2B23C700000001100001000000000001000000000000000000000040000400000000000440000000000020000080C5EB
:2B23F200800008800000000000800000000000000000000000000020000200000000000220000000000000000080E78D
:2B241D00400000000000000000000000000000000000000000000000000000000000000010000000000000000080B60E
:2B24480000800008000000000000000000000000C000000000000000200000000000000000200000000000300080DB56
:2B24730000000000000000000000000000000000E000000000000000000000000000000000000000000000300080D9D5
:2B249E00000000000000000000000000000000000000000000000000000000000000000000000000000000000080E7AC
:2B24C900008000000000000000000000000000000000000000000000000000000000000000200000000000000080CFF9
:2B24F400000000000200000000000000000000000000000000000000000800000000000000000000000000000000C5EE
:2B251F00000000000000000000000000000000000000000000000000000000000000000000000000000000000080E72A
:2B254A00000000000000000000000000000000000000000000000000000000000000000000000000000000000080E7FF
:2B2575000000000000000000000000000000000002000000000000000000000000000000000000000000000C0080C9E4
:2B25A000000000000000000000000000000000C02000000000000000000000000000000000000000000000480000E503
:2B25CB00000000000000000000800000000000000000000000000000000000000000000200000000000000000000CD96
:2B25F600000000100000000000000000000000000000000000000000422000000000002000020000000000000080B7EF
:2B262100000000000000000000000000000000000000000000000000000000000000000000000000000000000080E727
:2B264C00100000000010000000000000000000000000000000000000000000000000000000000000000040000080A2E1
:2B267700000000000000000000000000000000000000000000000000000000000000000000000000000000000080E7D1
:2B26A200020000000000000000000000000000000000000000000000000000000000000000000000000000000080E5A6
:2B26CD00000000000000000000000200000000000000000000000000000000000000000000000000000800000088CD83
:2B26F800000000000000000000000000000000000000000000000000000000000000000000000000000000000080E750
:2B272300000000000000000000000000000000000000000000000000000000000000000000000000000000000080E724
:2B274E00000000000000000000000000000000000000000000000000000000000000000000000000000000000080E7F9
:2B277900000000000000000000000000000000000000000000000000000000000000000000000000000000000080E7CE
:2B27A400100000000000000000000000000000000000000000000000000000000000000000000000000000000008FFF3
:2B27CF00000000000000000000000000000000000000000000000000000000000000000000000000000000000080E778
:2B27FA00000000000000000000000000000000000000000000000000000000000000000000000000000000000080E74D
:2B282500000000000000000000000000000000000000000000000000000000000000000000000000000000000080E721
:2B285000000000000000000000010000000000000000000000000000004000000000000000000000000000000080E2BA
:2B287B00000000000000000000000000000000000002080000000000000008000000000000040000000010004000D6F6
:2B28A600020000000000000000000000000000000000000000000000000000000000000000080000000020008008CF86
:2B28D100020000000000000000000000000000000000000000000000000000000000000000000000000000000080E575
:2B28FC00040000000000000000000000000000000000000000000000000000000000000000000000000000000080E34A
:2B292700020000000000000000000000000000000002080000000000000008000000000000040000000030004000F607
:2B295200020000000000010000100000000000000000000000000000000004000000000000000000000000040080B00F
:2B297D00020000000000000201000001000000000000000000000080400000000000000000000000000004000088CF0E
:2B29A800800008800000000000000008800008800008000000000000000020000220000220000220000000000280E7F5
:2B29D300800008800008800008800008800008800008000000000020000220000220000220000220000220000280E776
:2B29FE00000000000000000000000000000000000040000000000000000000000000000000000000000000000080A34B
:2B2A2900020000000000000000000000000000000026000000000000000000000000000000000000000000000008AFA3
:2B2A5400000000000000000000000000000000000002000000000000000000000000000000000000000000000080C70E
:2B2A7F0000000000000000000000000000000000003401000000000000000000000000000000000000000000008095E2
:2B2AAA0000000000000000000000000000000000001A000000000000000000000000000000000000000000000000DE09
:2B2AD50000000000000000000000000000000000003A100000000000000000000000000000000000000000000000ECA0
:2B2B0000020000000000000000000000000000000018080000000000000000000000000000000000000000000088FC04
:2B2B2B00000000000000000000000000000000000038000000000000000000000000000000000000000000000000DC6B
:2B2B5600000000000000000000000000000000000000000000000000000000000000000000400000000000000084E7A9
:2B2B8100000000000000000000000000000000000000000000000000000000000000000098000000000000800980E7A1
:2B2BAC0002000000000000000000000000000000000000000000000000000000000000000020000000000000000AEDE5
:2B2BD700000000000000000000000000000000000000000000000000000000000000000010000000000000000180E75B
:2B2C0200000000000000000000000000000000000000000000000000000000000000000000000000000000000080E740
:2B2C2D00000000000000000000000000000000000000000000000000000000000000000080400000000000000884E749
:2B2C5800000000000000000000000000000000000000000000000000000000000000000000040000000000004280C5C6
:2B2C83000200000000000000000000000000000000000000000000000000000000000000C0000000000000000808A9AB
:2B2CAE00000000000010000110000100000000000000000000000000000000000000000000000000000000000080E772
:2B2CD900000000000016600116600100000000000000000000000000000000000000000000000000000000000080E77B
:2B2D0400000000000012200112200100000000000000000000000000000000000000000000000000000000000080E7D7
:2B2D2F00020000000014400114400100000000000000000000000000000000000000000000000000000000000008EDD8
:2B2D5A00020000000012200112200100000000000000000000000000000000000000000000000000000000000008EDF1
:2B2D8500040000000012200112200100000000000000000000000000000000000000000000000000000000000090F237
:2B2DB000020000000010044110004100000000000000000000000000000000000000000000000000000000000008E95F
:2B2DDB00020000000034000314010300000000000000000000000000000000000000000000000000000000000008CEA6
:2B2E060002000000001000011000010000000000000000000000000000000000000000000000000000000000000CADC4
:2B2E3100000000000016600116600100000000000066000000000000000098010000000000000000000000800980E0A0
:2B2E5C00000000000012200112200100000000000002000000000000000008000000000000000000000000000002EFEA
:2B2E87000000000000144001144001000000000000140100000000000000D0200000000000000000000000000100D39D
:2B2EB20000000000001220011220010000000000001A040000000000000068000000000000000000000000000008BC45
:2B2EDD0002000000001220011220010000000000003A000000000000000068080000000000000000000000000A04FAB0
:2B2F0800020000000010000110040100000000000018080000000000000060200000000000000000000000004000B2E4
:2B2F33000200000000140111340011000000000000380000000000000000E00000000000000000000000000008009B4B
:2B2F5E00020000000010000110000100000000000000000000000000000000000400000004000004000000000080A1F7
:2B2F8900000000000016600116600100000000000000000000000000000000800500800900800900000000000088B25E
:2B2FB400000000000012200112200100000000000000000000000000000000000400000002000002000000000080A361
:2B2FDF00000000000014400114400100000000000000000000000000000000000500000100000100000000000080B2E4
:2B300A00000000000012200112200100000000000000000000000000000000000400000000000200000000000080812E
:2B303500000000000012200112200100000000000000000000000000000000000400000C04000804000000000008EFF3
:2B306000020000000010044110044100000000000000000000000000000000000400004000004000000000000080A1F4
:2B308B00020000000030400330400300000000000000000000000000000000001400000800000800000000000080A0EE
:2B30B600020000000010001110001000000000000000000000000040000400000400000000000000004040000084B0B0
:2B30E100020000000016600316E00300000000000000000000000058800500800500000000000000800F588009008BF3
:2B310C0000000000001280051200000000000000000000000000004880040000040000000000000000104800000A9B22
:2B313700000000000014C00114C00900000000000000000000000050000500000500000000000000000F500001808100
:2B316200000000000012000912000400000000000000000000000048800400000400000000000000000048000080BABF
:2B318D00000000000012800112000200000000000000000000000048800400000400000000000000001848000884951F
:2B31B8000200000000100001108001000000000000000000000000C0000C000014000000000000000006C000400886D4
:2B31E3000000000000108141108101000000000000000000000000D0000C00000C000000000000000006C0000A00B6EF
:2B320E00000000000000010108010100000000000000000000000040000400000400000000000020000400040000C950
:2B32390000000000003E60012E6001000000000000060800000000588005008005000000000000388005F8000000DA3D
:2B326400000000000000200198200100000000000008000000000048800400000400000000000020800400000080DC8D
:2B328F0002000000005C40011C400100000000000024080000000050000500000500000000000030000570010008865E
:2B32BA00000000000000200108200100000000000000000000000048800400000400000000000020800400000080C5E6
:2B32E5000000000000802001582001000000000000080400000000488004000004000000000000208004800100009D06
:2B3310000000000000180001080001000000000000080800000000C0000C00000400000000000020200C6000008092D2
:2B333B000000000000184011184411000000000000280000000000C0000D000004040000000000A0000C60000088D42C
:2B336600020000000000011108011000000000000000080000000040044200000200400000000000400440000000B00B
:2B33910002000000003E60032EE003000000000000060000000000D8800B18840398000000000098800558000000DC6C
:2B33BC00020000000040800518000800000000000000000000000060001620000200200000000000A00448000000E477
:2B33E70002000000001CC0039CC0010000000000000C100000000070010F90040310000000000010000550000080B89D
:2B341200000000000080000148000400000000000008000000000040010200000200000000000040800448000088FFE2
:2B343D000000000000008009180000000000000000000400000000E0001620100280400000000080C00448000080F2D9
:2B346800000000000018000108800100000000000008080000000040000220201240040000000000010CC0000080F86A
:2B3493000000000000188041188401000000000000280000000000601006A1000280000000000080000DD0000080CD2D
:2B34BE001A0000000000000200040000000000000008000000000080000021000000000000000000000000000080E1B9
:2B34E900000000000020010000002000000000000000000000000000000000000000000000000000008080040000CAA9
:2B351400800008800000000000000008800008800000000000000000000000000220000220000220000000000200CD3F
:2B353F00800008800008800008800008800008800008000000000020000220000220000220000220000220000280E7FE
:2B356A00000000000022200B022000000C0000000000000000000028000C008000100000040000840034800C0080C669
:2B359500000000000000000000000000000000000000000000000000000000000000000001000001000400000080A3E2
:2B35C000000000000000000000000000400004000000000000000080800008000100000000000000000000000000F69D
:2B35EB00000000000000000000000000000000000000000000000000000000000020000000000000000000080080CD40
:2B361600000000000022200A02200000480004000000000000000088800808800110000005000085003480040000AC38
:2B364100000000000010000110000100000000000008000000000000000000000000000000000000000000000000EF45
:2B366C00000000000008800008800000000000000080000000000020000200000000200002200002200220000002E712
:2B369700000000000000401000010000000000000000010000000010044000040000000000000000000000000080B32B
:2B36C200000000000000000000000000000000000000040000000010000100100000000000000000000110000080F334
:2B36ED00000000000000000000000000000000000010060000000000000040100004200002200002200000000082E47E
:2B371800000000000000000000000000000000000000000000000000000000000020088220088200180000008280D543
:2B3743000000000000000080000000010000000000000000000000002000000000000000000000000000040000809F97
:2B376E00000000000000000000000000000000000000000000000000000000000000000000000000000000000080E7C9
:2B379900000000000000000000000000000000000000000000000000000000000000000000000000000000000080E79E
:2B37C400000000000000000000000000000000000000000000000000000000000000000000000000000000000080E773
:2B37EF000000000000000000000000000000000000001800000000000000A0000000000000000000000000000000DD1A
:2B381A00000000000000000000000000000000000000020000000000000000000000000000000000000000000080E51C
:2B384500000000000008000000000000000000000000000000000000000000000000000000000000000020000000CD63
:2B387000000000000080000880100800000000000000000000000000000004000000000000000000000000000080B7D2
:2B389B00000000000000000000000000000000000000000000000000000000000000000000000000000000000080E79B
:2B38C600000000000000000000000000000000000000000000000000000000000000000000000000000000000080E770
:2B38F100000000000000000000000000000000000000000000000000000000000000000000000000000000000080E745
:2B391C00000000000000000000000000000000000000000000000000000000000000000000000000000000000080E719
:2B394700401004411004411004411004411004411004010000000010044110044110044110044110044110044180E7F2
:2B397200601886611886611886611886611886611886010000000018866118866118866118866118866118866180E7CF
:02399D00FFFF2A
:00000001FF
